:020000040800F2
:10000000B8DA01203D020008450200084702000856
:10001000490200084B0200084D02000800000000E1
:10002000000000000000000000000000A501000822
:100030005102000800000000E901000819770008DB
:1000400057020008570200085702000869570008C5
:10005000570200085702000857020008570200081C
:10006000570200085702000857020008570200080C
:1000700057020008570200085702000857020008FC
:1000800057020008570200085702000857020008EC
:10009000000000005702000800000000570200089E
:1000A000570200085178000857020008570200085C
:1000B00057020008570200085702000857020008BC
:1000C000000000005702000800000000570200086E
:1000D000570200085702000857020008570200089C
:1000E000570200085702000857020008570200088C
:1000F000570200085702000857020008570200087C
:1001000000000000570200085702000857020008CC
:10011000570200085702000857020008570200085B
:10012000570200085702000857020008570200084B
:1001300057020008D933000800000000000000004A
:1001400057020008000000000000000057020008ED
:10015000000000000000000000000000570200083E
:10016000000000000000000000000000000000008F
:10017000000000000000000000000000000000007F
:1001800000000000000000005702000857020008AD
:10019000DFF80CD000F0BAFC00480047A9CC0008FA
:1001A000B8DA0120224B19680868B0E8F00F80F334
:1001B0000988BFF36F8F4FF0000080F311884EF075
:1001C0000D0E70470000000006480068006880F3CC
:1001D000088862B661B6BFF34F8FBFF36F8F00DF41
:1001E00000BF00BF08ED00E0EFF30980BFF36F8FA1
:1001F0000F4B1A6820E9F00F106008B54FF050005F
:1002000080F31188BFF34F8FBFF36F8F16F0A6FCFA
:100210004FF0000080F31188BDE8084019680868B5
:10022000B0E8F00F80F30988BFF36F8F704700BF0D
:1002300024010020EFF30580704700000648804746
:1002400006480047FEE7FEE7FEE7FEE7FEE7FEE7BB
:10025000FEE7FEE7FEE7FEE74977000891010008A8
:10026000004870473C78010810B5431A934209D200
:100270008318881803E010F8011D03F8011D521EB1
:10028000F9D210BD40EA01039B0703D009E008C979
:10029000121F08C0042AFAD203E011F8013B00F84B
:1002A000013B521EF9D210BDD2B201E000F8012B81
:1002B000491EFBD270470022F6E710B513460A46E6
:1002C00004461946FFF7F0FF204610BD30B504463E
:1002D0000020034600E05B1C934203D2E05CCD5C4F
:1002E000401BF8D030BD70B5064607F007FD046826
:1002F00005460A220021304600F00DFB2C6070BD3F
:10030000F0B480EA0102D40F4200B2EB410F02D2F6
:100310000246084611464A0042D0C30DDDB2C1F381
:10032000C752AD1A202D35DAC1F3160141F400028F
:1003300004B15242C5F1200602FA06F12A411044E6
:10034000B3EBD05F23D0C4B1012DA0EBC35009DCC7
:10035000F0BC4FF0004202EAC352DBB200F50000ED
:1003600000F01ABB400000F1807000EBC350A0F118
:10037000807040EAD170490009E0490841EAC07143
:10038000A0EBC35000F50000400800EBC350F0BCE8
:1003900000F0F9BA6142012202EB4101001BF6E7CD
:1003A000F0BC704781F00041AAE780F00040A7E769
:1003B00080EA010210B502F00043400022D04A005A
:1003C0001FD0010E01EB1261C0F35600C2F35602BA
:1003D00040F4000042F40002A0FB022000047F3938
:1003E000140400D0401C50EA124001D44000491EC1
:1003F000C2B20C0604EBD010401C4008802A02D088
:1004000003E0002010BD20F00100002900DA0020E8
:10041000184310BD30B480EA010202F0004530F00C
:10042000004221F0004013D090B1C30DD40DC2F3AF
:100430001601C0F31600E41A41F4000140F4000272
:100440007D34914201D3641C00E04900002C02DAA3
:1004500030BC002070474FF400000023914201D3CC
:10046000891A034340084FEA4101F7D151B1914243
:1004700002D14FF0004105E002D24FF0010101E04E
:100480006FF0010103EBC450284430BC00F07BBA8C
:100490002DE9FE4F804681EA0300C00F0C46009014
:1004A00021F0004123F00045B8EB0200A94105D23C
:1004B0004046214690461C460B46024623F000402B
:1004C000104347D0270DC7F30A00C3F30A51029027
:1004D000401A019040286BDAC3F3130040F4801BEC
:1004E0000098924620B10023D2EB030A63EB0B0B7A
:1004F00001985946C0F14002504600F0EBF906461B
:100500000D4650465946019A00F0F3F910EB0800E9
:100510006141002487EA115284EAE7731A4340D00C
:10052000009A62B3019A012A4FEA075215DC001BB8
:1005300061EB02014FF0004202EA0752CDE90042AE
:10054000001C41F5801132462B4600F091FA03B0B1
:10055000BDE8F08F40462146F9E7001B61EB020140
:10056000001C41F5801300185B412018A2F500170C
:1005700047EB030140EAD570B6196D4111E06D08F3
:100580004FEA360645EAC0754FEA0752001B61EB99
:100590000201001C41F5801149084FEA30000019A2
:1005A000514132462B4603B0BDE8F04F00F051BA3E
:1005B0000098012240000023D0EB020263EBE073BD
:1005C000009821464FEAE074B8EB000061EB0401AB
:1005D000E9E783F000435BE781F0004158E72DE94C
:1005E000FE4F81EA030404F0004421F0004100942E
:1005F0004FF0000B23F0004350EA01045ED052EAB2
:1006000003045BD0C3F30A54C1F30A552C44A4F28B
:10061000F3340194A0FB0254C1F3130141F480119F
:10062000C3F3130343F4801301FB024400FB034EA6
:10063000840A970A44EA815447EA8357A4FB07686F
:1006400002958D0A05FB07854FEA932C04FB0C5499
:100650002705029D4FEA065847EA1637B5EB08050D
:100660006EEB070C870E920E47EA811742EA83125F
:10067000A7FB0201B6EB0B0164EB00042B0D43EA70
:100680000C335E1844EB1C50DA465146E7FB02017E
:10069000C5F313044FEA0B3343EA14534FEA043211
:1006A000019C43EA0603A4F10C040294009CCDE9EA
:1006B00000B400F0DDF903B0BDE8F08F0020014682
:1006C000F9E72DE9F04D81EA030404F0004B21F035
:1006D000004514464FF0000A23F0004150EA05029D
:1006E00020D054EA01021DD0C5F30A570246C5F3D3
:1006F0001303C1F31300C1F30A5640F4801543F409
:100700008013A7EB0608101BD64608F2FD3873EBE2
:10071000050002D308F1010801E092185B41B8F12D
:10072000000F03DA00200146BDE8F08D00204FF4F1
:100730008011064684460EE0171B73EB050705D3B0
:10074000121B63EB050306434CEA010C49084FEA10
:10075000300092185B4150EA0107EDD152EA0300E4
:1007600012D082EA040083EA0501084305D0101B79
:10077000AB4106D20122002306E000224FF00043E5
:1007800002E06FF0010253101AEB06004CEB085127
:1007900010EB0A0041EB0B01BDE8F04D00F059B938
:1007A000C10F80EAE0700844CA079623002100F0D8
:1007B000F3B896230022114600F0EEB80EB5C10F33
:1007C00080EAE0700844CA07002140F233438DE814
:1007D0000E000A460B4600F04BF903B000BD0EB503
:1007E00040F2334102910021CDE900110A460B4647
:1007F00000F03EF903B000BD20F00040C10DC0F391
:10080000160040F400007F2901DA00207047962985
:1008100003DCC1F19601C8407047963988407047A3
:1008200000F0004230F000400AD0C10D01F56071C7
:10083000C0F3160042EA0151C20840071143704755
:1008400000200146704701F0004330B421F0004120
:1008500050EA010206D00A0DA2F56072C1F313013D
:10086000002A02DC30BC00207047440F44EAC10477
:10087000C100E01830BC00EBC25000F084B80000AA
:10088000002801DBC0F10040002901DBC1F100417B
:1008900081427047002801DBC0F10040002901DBE4
:1008A000C1F100418842704730B50B460146002037
:1008B0002022012409E021FA02F59D4205D303FA22
:1008C00002F5491B04FA02F52844151EA2F10102A3
:1008D000F1DC30BD202A04DB203A00FA02F10020CE
:1008E00070479140C2F1200320FA03F3194390406E
:1008F0007047202A06DBCB17203A41FA02F043EA80
:10090000E07306E041FA02F3D040C2F120029140C8
:100910000843194670472DE9F04791460F46804637
:100920000446002614F8015B2DB1FFF799FC00681E
:10093000405DC007F6D12B2D02D02D2D18D0641E9E
:100940004A463946204600F003F927B13968A142EA
:1009500001D1C7F8008071054FF002040BD5404269
:10096000002803DD07F0CAF90460A007BDE8F0879E
:1009700046F48066E4E70028F8DA07F0BFF904607F
:100980006FF00040F2E70029A8BF7047401C490003
:1009900008BF20F00100704710B4B0FA80FC00FAE4
:1009A0000CF050EA010404BF10BC704749B1CCF10F
:1009B000200421FA04F411FA0CF118BF012121439B
:1009C0000843A3EB0C01CB1D4FEA00614FEA102056
:1009D00042BF002010BC704700EBC35010440029F8
:1009E000A4BF10BC7047401C490008BF20F00100A4
:1009F00010BC7047F0B4002802DCF0BC0020704747
:100A0000C0F3C751C0F3160040F40000CA0701D17B
:100A10004000491E3F2202EB6105002211464FF4BF
:100A2000000626FA01F31344D418844201D8001BAF
:100A30001A464000491C1729F3DD5100814202D2B9
:100A40004FF0FF3100E0002102EBC550F0BCFFF792
:100A50009ABF10B5141E73F1000408DA401C41F16E
:100A6000000192185B411A4301D120F0010010BD32
:100A70002DE9F04D92469B4611B1B1FA81F202E0A8
:100A8000B0FA80F220329046FFF724FF04460F466A
:100A900040EA0A0041EA0B0153465A46084313D084
:100AA000114653EA010019D0C8F14002504600F047
:100AB0003FF805460E46504659464246FFF70AFFA4
:100AC000084305D0012004E020463946BDE8F08DFA
:100AD0000020054346EAE0762C4337430A98630535
:100AE000E40AA0EB08000022FD0A44EA47540A3059
:100AF00002D500200146E9E7010510196941DDE949
:100B0000084500196941BDE8F04DA2E7064C074DC4
:100B100006E0E06840F0010394E8070098471034CD
:100B2000AC42F6D3FFF738FB2C7B01084C7B010865
:100B3000202A04DB203A21FA02F00021704721FA32
:100B400002F3D040C2F12002914008431946704799
:100B50002DE9F05F82460078002715468B460AF1A2
:100B60000104B946302801D09DB113E014F8010BFF
:100B70000127782803D0582801D045B10AE00DB1EB
:100B8000102D07D10027102514F8010B02E00825CD
:100B900000E00A250026B0460EE005FB080005FB34
:100BA00006F1012701EB10461FFA80F8B6F5803FE9
:100BB00000D3B94614F8010B294600F018F80028B4
:100BC000EBDABBF1000F05D00FB1641E00E0544614
:100BD000CBF80040B9F1000F06D007F08FF80221E2
:100BE0000160C81EBDE8F09F48EA0640FAE73A28CF
:100BF00000D2303820F02002412A01D3A2F1370080
:100C0000884201D34FF0FF30704730B58C1810F890
:100C1000012B12F00F0301D110F8013B120906D18C
:100C200010F8012B03E010F8015B01F8015B5B1E7B
:100C3000F9D101E001F8013B521EFBD1A142E6D3FC
:100C4000002030BD10B54FF400610B4803F011FED9
:100C5000052002F085F94FF40061074803F007FE14
:100C60000F2002F07DF94FF40061034803F001FE0C
:100C7000322002F075F910BD0010044010B5114883
:100C80008088032800D110BD0F480078C0F3C01041
:100C9000A8B104F029FA0B484088012802D00228A4
:100CA00008D102E001F07AFF08E006F01BFE02F036
:100CB00049F803E000200349088000BF00BF00BFDF
:100CC000E1E70000603A0020746F002008B50121C0
:100CD000084604F06DFB0121022004F069FB0121AC
:100CE000042004F065FB0121102004F061FB68463C
:100CF00003F0C1FD0F220621364803F094FD0F22B8
:100D00000521344803F08FFD0F220421314803F000
:100D10008AFD0F220221304803F085FD0F220D21AC
:100D20002E4803F080FD0F2209212D4803F07BFDA2
:100D30007020ADF8000001208DF8020010208DF821
:100D400003006946234803F019FD0420ADF80000B4
:100D500001208DF8020010208DF8030069461E481E
:100D600003F00CFD4FF40050ADF8000001208DF8A9
:100D7000020010208DF803006946184803F0FEFCBD
:100D80004FF40070ADF8000001208DF80200102033
:100D90008DF803006946124803F0F0FC04210E4868
:100DA00003F067FD40210B4803F063FD2021094853
:100DB00003F05FFD1021074803F05BFD4FF4005185
:100DC000064803F056FD4FF40071054803F051FD4D
:100DD00008BD00000000044000100440000804406A
:100DE000000404401CB5012403F0BEFD03F0B0FD77
:100DF00003F0AAFD06F0DAFC14F002FD0948012117
:100E000000234A02CDE9001007A10B4816F028F98B
:100E10000446012C03D10948006815F085FD15F042
:100E200003FD1CBD3000002050726F6772616D5F62
:100E30005461736B00000000495300082C0000202F
:100E400008B50121084604F0B3FA0121082004F096
:100E5000AFFA684603F00FFD0F2200211E4803F091
:100E6000E2FC0F2203211C4803F0DDFC0F220421C9
:100E70001A4803F0D8FC0F220521184803F0D3FCD0
:100E80000920ADF8000001208DF8020010208DF837
:100E900003006946104803F071FC3020ADF80000F3
:100EA00001208DF8020010208DF8030069460B48E0
:100EB00003F064FC0121084803F0DBFC082106482C
:100EC00003F0D7FC1021054803F0D3FC2021034890
:100ED00003F0CDFC08BD000000000440000C0440FD
:100EE0002DE9F043054616461F4608464FF0000C14
:100EF000002423E0002319E003F1010805FB08F8B2
:100F000004F10109B8FBF9F28A4202D9A2EB010807
:100F100001E0A1EB02084246904202D9104633702C
:100F20003C7010B94FF0010C02E05B1C402BE3D386
:100F300000BFBCF1000F00D002E0641C042CD9D328
:100F400000BFBDE8F08310B5012004F071FA002065
:100F500004F06EFA10BD0000014602480844B0F8E3
:100F60004008704700200040024A0244A2F840189E
:100F7000704700000020004010B50020254BB3F85A
:100F80007A21B3F87C11244B9B7893421BDAC2F18F
:100F90003C03214CA478234498B21F4B5B788B42CE
:100FA00009DD1D4B5B785B1A5B1EC3EB031300EB83
:100FB000830398B21FE0184B5B78C3EB031300EB7D
:100FC000830398B217E0144B9B789B1A98B2124B8C
:100FD0005B788B4208DB104B5B785B1AC3EB031327
:100FE00000EB830398B206E00B4B5B78C3EB031373
:100FF00000EB830398B2094BA3F89003064B9C784F
:10100000044BA3F87A41044B5C78024BA3F87C4173
:1010100010BD0000F46D0020DC310020603A00209B
:1010200010B5002404E0204600F04AF8601C84B2A9
:10103000402CF8DB002404E0204600F09FF8601C00
:1010400084B2402CF8DB002404E0204600F06CF968
:10105000601C84B2082CF8DB16480078C0F300103E
:10106000C0B9002405E00021134840F82410601C9A
:1010700084B2402CF7DB002409E000210F4820F85F
:10108000141000F5807020F81410601C84B2402CFD
:10109000F3DB0DE007480078C0F3001040B10024F6
:1010A00004E0204600F0D2F8601C84B2402CF8DB4B
:1010B00010BD0000746F0020703A0020F03B00204B
:1010C0002DE9F04F8BB0044600262BE0264830F87F
:1010D000140000EB8001254800EBC10050F82650B9
:1010E00005F4004060B1A5F5FE45FF3D2846FFF739
:1010F00060FB0A901E490A98FFF75AF981460AE0F8
:1011000047F6FF71481BFFF754FB0A9018490A98ED
:10111000FFF74EF981464846FFF76EFB4DF8260073
:10112000701C86B20A2ED1DB0A21684606F04CFA02
:1011300082465046FFF73DFB07460E4800880128CF
:1011400007D03846FFF758FB8346214603F0F2F9F3
:1011500007463846FFF750FB1FFA80F8064820F88C
:1011600014800BB0BDE8F08FAC740108304A002049
:101170005055053F20730020F03B00202DE9F04F33
:1011800091B0044600262CE0274830F8149009EB73
:101190008901264800EBC10050F8265005F40040B4
:1011A00060B1A5F5FE45FF3D2846FFF702FB109014
:1011B0001F491098FFF7FCF882460AE047F6FF71D6
:1011C000481BFFF7F6FA109019491098FFF7F0F84E
:1011D00082465046FFF710FB01A941F82600701C1B
:1011E00086B20A2ED0DB0A2101A806F0EDF983466B
:1011F0005846FFF7DEFA07460E480088012807D058
:101200003846FFF7F9FA2146009003F025FA074621
:101210003846FFF7F1FA1FFA80F8074820F81480E3
:1012200011B0BDE8F08F00002C740108304A002096
:101230005055053F20730020F03C002000B5FFF71B
:101240009BFE002006F022FB00BD00002DE9F047C8
:1012500004462E484088012819D12D4830F8140042
:10126000012807D12B48D0F850192848103040F8F1
:10127000241048E00021284820F8141000F5807060
:1012800020F81410A0F5207040F824103BE01F480F
:101290004088022837D11E4830F81400012827D191
:1012A0001E4830F81400642190FBF1F63046FFF739
:1012B00077FA05461A492846FFF77AF88246154814
:1012C000D0F84C090A21B0FBF1F94846FFF771FA52
:1012D00080465146FFF766F807461249FFF768F85F
:1012E0000646FFF789FA0949103141F824000AE05F
:1012F0000021094820F81410084820F81410A0F51F
:10130000207040F82410BDE8F0870000603A00200B
:10131000A0720020F45D0020F03B0020F03C002093
:101320000000C841000020412DE9F04192B0044680
:1013300001940020029040E04B4830F8140000EB8C
:1013400080004A4901EBC000BDF8081050F8216048
:1013500006F4004090B1A6F5FE46FF3E3046FFF78A
:1013600028FA804642494046FFF722F8074641489E
:10137000008820F020003F49088011E047F6FF7107
:10138000881BFFF716FA804639494046FFF710F8E8
:1013900007463848008820F0200020303549088072
:1013A0003846FFF729FA03A9BDF8082041F82200C2
:1013B000BDF80800401C80B20290BDF808000A2861
:1013C000BADB0A2103A806F0FFF80546082C46D22E
:1013D000DFE804F004182C404142434423483C38E1
:1013E000C0F8505923480078C0F3401048B11F4856
:1013F0003C38D0F8500940F000411C483C38C0F857
:1014000050192DE019483C38C0F84C59194800785B
:10141000C0F3401048B115483C38D0F84C0940F0B2
:10142000004112483C38C0F84C1919E00F483C38CC
:10143000C0F854590F480078C0F3401048B10B4829
:101440003C38D0F8540940F0004108483C38C0F816
:10145000541905E004E003E002E001E000E000BF11
:1014600000BF12B0BDE8F0812C750108305E00208D
:101470000000C83F746F0020F0B589B007460F2602
:1014800000240AE03146701C86B22B4830F8110067
:1014900003A921F81400601C84B2042CF2DBBDF80F
:1014A0000C00C0B2ADF81400BDF80C00000AADF895
:1014B0001600BDF80E00C0B2ADF81800BDF80E0061
:1014C000000AADF81A00BDF81000C0B2ADF81C005B
:1014D000BDF81000000AADF81E00BDF81200C0B241
:1014E000ADF82000BDF81200000AADF82200BDF8EA
:1014F0001E00BDF8201001EBC10202EB011100EB50
:10150000810085B2BDF81400C0B2BDF81610C9B292
:10151000CDE90010BDF81800C3B2BDF81A00C2B280
:10152000BDF81C00C1B2284604F0C4F900210846E9
:1015300002F086FC09B0F0BD263E002002200A49D8
:101540000880002008814860084908604860064912
:10155000C86008618882C8820883488388830862DB
:1015600048628862C862704720730020F43D002002
:101570000021174A1180174A9160D1601180002024
:1015800022E000221349103141F8202001F580713A
:1015900021F81020803121F81020803121F810200E
:1015A000803121F81020803121F810200A4921F8DB
:1015B0001020803121F81020803121F81020803156
:1015C00021F81020411C88B24028DADB7047000067
:1015D000746F0020603A0020A07000207CB50446A3
:1015E0000D466DB300940020019023E04FF480512C
:1015F000284803F03EF99DF8000000F0800028B173
:101600004FF40041234803F034F904E04FF4004163
:10161000204803F02CF94FF480511E4803F027F9BD
:101620009DF800004006000E00909DF80400401C4C
:10163000C0B201909DF804000828D7DB01207CBDD2
:101640000020009001901EE09DF800004006000E72
:1016500000904FF480410F4803F0F9F820B19DF855
:10166000000040F0010000904FF48051094803F061
:1016700000F94FF48051074803F0F9F89DF8040091
:10168000401CC0B201909DF804000828DCDB9DF8E6
:101690000000D4E70010044070B5064600240F2572
:1016A00029466D1C154830F81140E4B2012C06D0D3
:1016B000022C13D0032C14D0042C18D114E01048A1
:1016C0000078C0F3400040B10D48008820F00800C9
:1016D00008300B49088003F077FC09E003F0CCFBED
:1016E00006E003F0F9FB03E003F09CFC00E000BF20
:1016F00000BF0021084602F0A3FB70BD263E00207B
:10170000746F00202DE9F04FA5B0002023908021B8
:1017100003A8FEF7D0FD002002904FF00F094946C4
:1017200009F10109514830F81150681E85B2494647
:1017300009F101094D4830F8116006EBC60000EBD5
:1017400006104FF6FF7101EA8006002405E02146ED
:10175000002005F025FD601C84B2082CF7DB002476
:1017600009E02146002005F06BFD0021204601F034
:101770004FF9601C84B2402CF3DB3D48008850BB1D
:1017800006F1C600FFF71AF807463A4A3A4BFEF749
:101790007FFE8246394A3A4BFEF721FFCDE9000130
:1017A000FFF751F802900298FFF726F880B22390D5
:1017B0003046FEF7FEFF8246294602F04DF980468C
:1017C0004FF08641FEF79CFD0746FFF715F803A989
:1017D00021F815001EE02648008801281AD130465D
:1017E000FEF7FDFF0746234A234BFEF751FE234A2F
:1017F000234BCDE90001FEF7F2FE8246FFF723F806
:1018000002900298FEF7F8FF80B22390802003A98F
:1018100021F8150008211B4803F02BF802211A4873
:1018200003F025F8002405E02146239805F0B8FCD4
:10183000601C84B2082CF7DB0A2001F091FB03A99D
:1018400031F81500294605F0FBFC0A2001F088FB61
:101850000121284601F0DCF80A2001F081FB00217B
:10186000084602F0EDFA25B0BDE8F08F263E0020D4
:1018700020730020FA34C3A6DF6DF13F4BC8073D4B
:101880009B558F3F000804400010044070B505468A
:101890000F242146641C054830F8110004490880D3
:1018A0000021084602F0CCFA70BD0000263E002060
:1018B00020730020F8B507460F263146761C2548D0
:1018C00030F81150681E85B2012000F0ABFE0520F3
:1018D00001F046FB00240DE0204600F01DFE05202F
:1018E00001F03EFB204604F06DFE082000F014FEDF
:1018F000601C84B2082CEFDB002000F093FE052072
:1019000001F02EFB022000F08DFE052001F028FBE7
:1019100000240DE0204600F0FFFD052001F020FB33
:10192000204604F067FB082000F0F6FD601C84B23E
:10193000082CEFDB002000F075FE2846FFF7C0FB07
:10194000054830F8150000906946012002F078FA49
:10195000F8BD0000263E0020F03B002030B50546D3
:101960000A460023B2F5C06F01DD002030BD2C46D1
:10197000002107E014F81100034434F8110003EBD0
:101980002023491C9142F5D31846EFE72DE9F04F8B
:10199000A5B0802104A8FEF78EFC624800880228CA
:1019A00076D16048808AB0F5FA5F02DDDFF8789181
:1019B00004E05C49888AFEF7FCFE81465B494846A4
:1019C000FEF79EFC0190FEF72BFF0746584A594B45
:1019D000FEF75EFD584A594BCDE90201FEF7FFFDC7
:1019E0000546FEF730FF82465046FEF705FF1FFA18
:1019F00080FB002422E0524830F81400012817D15F
:101A00002146484602F028F806464FF08641FEF788
:101A100077FC0546FEF7F0FE04A921F8140004A89F
:101A200030F81400FF2807DDFF2021F8140003E040
:101A3000002004A921F81400601C84B2402CDADBD9
:101A400040480078C0F3001000283AD0002405E098
:101A50002146584605F0A4FB601C84B2082CF7DB35
:101A60000A2001F07DFA002420E0354830F8140007
:101A700001280ED104A931F81400214605F0E0FB3D
:101A80000A2001F06DFA0121204600F0C1FF0BE0B1
:101A900045E02146002005F0D3FB0A2001F060FA62
:101AA0000021204600F0B4FF601C84B2402CDCDB37
:101AB0000821254802F0DDFE0221244802F0D7FE6D
:101AC00025E00821204802F0D4FE02211F4802F040
:101AD000D0FE002405E02146002005F061FB601CDB
:101AE00084B2082CF7DB0A2001F03AFA00240CE05B
:101AF0002146002005F0A4FB0A2001F031FA002164
:101B0000204600F085FF601C84B2402CF0DB0D48BD
:101B1000008820F4807000F580700A49088025B0A4
:101B2000BDE8F08F207300200000FA4500001B4341
:101B3000FA34C3A6DF6DF13F4BC8073D9B558F3F7D
:101B4000A0720020746F00200008044000100440C0
:101B50002DE9F04FA9B0802106A8FEF7ACFB7A482A
:101B60000088022879D17948D0F84C0942F21071E6
:101B7000B0FBF1F73846FEF71CFE05467248806A56
:101B80000A21B0FBF1F73846FEF713FE27907048A4
:101B90002799FEF70DFC07466E49FEF73BFC2790A0
:101BA00029462846FEF704FC07462799FEF7FAFB6C
:101BB000814648460EF0DCF9269028462699FEF725
:101BC000F1FB07466449FEF725FC83466349584606
:101BD000FEF7EEFB834662495846FEF75BFE01D2F4
:101BE000DFF87CB15F495846FEF78AFB0190FEF7AB
:101BF00017FE5D4A5D4BCDE90201FEF749FC5C4AE8
:101C00005C4BCDE90401FEF7EAFC0746FEF71BFE3C
:101C100006463046FEF7F0FD1FFA80FA002423E066
:101C2000554830F81400012818D12146584601F0D3
:101C300013FF80464FF08641FEF762FB0746FEF732
:101C4000DBFD06A921F8140006A830F81400FF28CF
:101C500008DDFF2021F8140004E072E0002006A94E
:101C600021F81400601C84B2402CD9DB4348007872
:101C7000C0F30010002836D0002405E0214650466D
:101C800005F08EFA601C84B2082CF7DB00241FE0FC
:101C9000394830F8140001280DD106A931F8140094
:101CA000214605F0CDFA0A2001F05AF9012120461B
:101CB00000F0AEFE0AE02146002005F0C1FA0A203D
:101CC00001F04EF90021204600F0A2FE601C84B213
:101CD000402CDDDB08212A4802F0C9FD02212948F9
:101CE00002F0C7FD25E00821254802F0C2FD0221CF
:101CF000244802F0BEFD002405E02146002005F046
:101D00004FFA601C84B2082CF7DB0A2001F028F996
:101D100000240CE02146002005F092FA0A2001F090
:101D20001FF90021204600F073FE601C84B2402C95
:101D3000F0DB1248008820F4807000F580700F49B5
:101D4000088029B0BDE8F08F20730020F45D0020EA
:101D50000000C84200007A44000048420050C347D7
:101D60000000FA4500001B43FA34C3A6DF6DF13FC3
:101D70004BC8073D9B558F3FA0720020746F002019
:101D8000000804400010044010B50821124802F079
:101D900070FD0221114802F06CFD0A2001F0E0F80C
:101DA000002405E02146002005F0FAF9601C84B209
:101DB000082CF7DB00240CE02146002005F040FA57
:101DC0000A2001F0CDF80021204600F021FE601C21
:101DD00084B2402CF0DB10BD000804400010044029
:101DE00038B50121084603F0E3FA0121022003F08F
:101DF000DFFA0121042003F0DBFA0121082003F0BF
:101E0000D7FA0121102003F0D3FA0121802003F03A
:101E1000CFFA684602F02FFD0F220821CE4802F0CB
:101E200002FD0F220921CC4802F0FDFC0F220A21FD
:101E3000C94802F0F8FC0F220B21C74802F0F3FC5E
:101E40000F220C21C44802F0EEFC0F221146C248BA
:101E500002F0E9FC0F220321C04802F0E4FC0F224B
:101E60000421BE4802F0DFFC0F221146BB4802F0FD
:101E7000DAFC0F220E21B94802F0D5FC0F220B210B
:101E8000B64802F0D0FC0F220121B44802F0CBFC8E
:101E90000F220221B14802F0C6FC0F220021AF48F8
:101EA00002F0C1FC0F220621AC4802F0BCFC0F225C
:101EB0000521AA4802F0B7FC0F220921A84802F028
:101EC000B2FC0F220821A64802F0ADFC0F22072128
:101ED000A34802F0A8FC0F220621A14802F0A3FCAF
:101EE0000F220C219E4802F09EFC0F220B219C48E1
:101EF00002F099FC0F220A21994802F094FC0F226B
:101F00000321974802F08FFC0F220621954802F02A
:101F10008AFC0F220321934802F085FC0F22022144
:101F2000904802F080FC0F220A218E4802F07BFCD0
:101F30000F2209218B4802F076FC0F2208218948E4
:101F400002F071FC0F220621874802F06CFC0F2280
:101F50000521854802F067FC0F220121824802F02A
:101F600062FC0F220221814802F05DFC4FF41F4009
:101F7000ADF8000001208DF8020010208DF803005C
:101F80006946754802F0FAFB4CF67F00ADF8000098
:101F900001208DF8020010208DF8030069466F487B
:101FA00002F0ECFB41F6C870ADF8000001208DF89E
:101FB000020010208DF803006946694802F0DEFB3C
:101FC00040F24C70ADF8000001208DF802001020A6
:101FD0008DF803006946634802F0D0FB6220ADF83B
:101FE000000001208DF8020010208DF803006946E2
:101FF0005D4802F0C3FB0420ADF8000001208DF81D
:10200000020010208DF803006946584802F0B6FB24
:102010001021524802F02DFC0821504802F029FC02
:102020004021504802F025FC08214E4802F021FCD6
:1020300004214C4802F01DFC4FF40041464802F0D8
:1020400018FC0421494802F014FC4FF48051424826
:1020500002F00FFC4FF400613F4802F00AFC4FF41D
:1020600080613D4802F005FC4FF400713A4802F0EF
:1020700000FC4FF48071384802F0FBFB4FF4007114
:10208000374802F0F6FB4FF48071354802F0F1FB5F
:102090008021334802F0EDFB4021314802F0E9FB9A
:1020A0004FF480612F4802F0E4FB4FF400712D489B
:1020B00002F0DFFB4FF480712A4802F0DAFB4FF4A4
:1020C0000041264802F0D5FB4FF48041234802F03E
:1020D000D0FB4FF40061214802F0CBFB02211F48E6
:1020E00002F0C7FB04211D4802F0C3FB40211E483B
:1020F00002F0BFFB0121194802F0BBFB4FF48051F5
:10210000174802F0B6FB2021174802F0B2FB4FF44B
:102110000061134802F0ADFB4FF48061104802F0FB
:10212000A8FB40210D4802F0A4FB20210B4802F03F
:10213000A0FB08210A4802F09CFB02210A4802F099
:1021400098FB002405E00020094921F81400601CD8
:1021500084B20A2CF7DB38BD0000044000040440C0
:1021600000080440000C044000100440001C04401F
:102170004A32002010B51D480078C0F3C00020B1DD
:102180001A480078C0F3400000B910BD1748008815
:1021900020F008001549088000201549A1F8340CEA
:1021A000FFF7E6F9022000F029F8124800891249E9
:1021B000488008464088012802D002280CD105E05A
:1021C00001200D490880FFF7E1FB0BE001200A49DF
:1021D0000880FFF7BDFC05E0002007490880FFF7F5
:1021E000D3FD00BF00BF00BFCFE70000746F002029
:1021F000F43D002020730020603A002070B50546B1
:10220000BE4885800C2D72D2DFE805F0064172844D
:102210007171BAFC717171FBFFF7AAF9FFF78EF9C2
:102220001021B74802F025FB2021B54802F01FFB22
:102230000220B4490880002405E02146002004F073
:10224000AFFF601C84B2082CF7DB002410E02146AD
:10225000002004F0F5FF0A2000F082FE0021204655
:1022600000F0D6FB0021A84820F81410601C84B2AE
:10227000402CECDB0020A149C8604880A349A1F8AC
:10228000340C0846008B20F00400088334E1FFF78B
:102290006FF910219A4802F0ECFA2021984802F0D8
:1022A000E6FA022097490880002405E02146002034
:1022B00004F076FF601C84B2082CF7DB00240CE0ED
:1022C0002146002004F0BCFF0A2000F049FE002156
:1022D000204600F09DFB601C84B2402CF0DB8C4853
:1022E000008820F00200801C8949088004E102E196
:1022F0008748008820F01000103085490880084683
:10230000008820F4807008800846008820F0800053
:102310000880F1E07E48008820F010007C490880A9
:102320000846008820F48070088000207349C86047
:102330001021734802F09DFA2021714802F097FAAB
:10234000002405E02146002004F02AFF601C84B22E
:10235000082CF7DB002410E02146002004F070FF79
:102360000A2000F0FDFD0021204600F051FB002175
:10237000654820F81410601C84B2402CECDBBBE0F4
:10238000FFF7DCF810215E4802F073FA20215C4868
:1023900002F06DFA5E48008820F010005C49088069
:1023A0000846008820F4807008800846008820F0E5
:1023B00080000880002051490880C860002405E0A2
:1023C0002146002004F0ECFE601C84B2082CF7DBF0
:1023D0000A2000F0C5FD00241EE02146002004F084
:1023E0002FFF0A2000F0BCFD0021204600F010FB6A
:1023F0000021484820F8141000F5807020F81410CF
:1024000001E049E00BE000F5807020F814103E4830
:1024100020F81410601C84B2402CDEDB6CE03C48D9
:10242000008820F010003A490880002033490880D5
:102430003748008820F080003549088000202F4967
:10244000C86010212E4802F012FA20212C4802F018
:1024500010FA002405E02146002004F0A1FE601CD3
:1024600084B2082CF7DB0A2000F07AFD002410E08B
:102470002146002004F0E4FE0A2000F071FD002156
:10248000204600F0C5FA00211F4820F81410601CF7
:1024900084B2402CECDB2FE0FFF76AF8FFF74EF830
:1024A0001B48008820F01000194908800846008861
:1024B00020F080000880002405E02146002004F080
:1024C0006FFE601C84B2082CF7DB0A2000F048FD88
:1024D00000240DE02146002004F0B2FE0021204639
:1024E00000F096FA0021084820F81410601C84B20D
:1024F000402CEFDB00E000BF00BF70BD603A002061
:10250000000C044020730020A0720020F43D002045
:10251000746F0020703B002010B50446082C6DD26B
:10252000DFE804F004111E2B3845525F04213B48BC
:1025300002F09DF940213A4802F099F920213848EB
:1025400002F095F967E00421344802F092F9402145
:10255000334802F08CF92021314802F088F95AE022
:1025600004212E4802F083F940212D4802F081F920
:1025700020212B4802F07BF94DE00421274802F08E
:1025800078F94021264802F074F92021244802F00D
:102590006EF940E00421214802F069F94021204809
:1025A00002F065F920211E4802F063F933E00421AE
:1025B0001A4802F05EF94021194802F058F920212A
:1025C000174802F056F926E00421144802F04FF9AA
:1025D0004021134802F04DF92021114802F049F939
:1025E00019E004210D4802F044F940210C4802F0A2
:1025F00040F920210A4802F03CF90CE00421074888
:1026000002F037F94021064802F033F9202104484E
:1026100002F02FF900BF00BF10BD00000010044001
:102620000000044010B50446012C04D0022C11D047
:10263000032C2DD11DE010211E4802F01AF94FF491
:1026400000511D4802F013F94FF400711B4802F0CD
:102650000EF92CE01021174802F009F94FF400514F
:10266000154802F006F94FF40071144802F0FFF823
:102670001DE010210F4802F0FAF84FF400510E4807
:1026800002F0F5F84FF400710C4802F0F2F80EE099
:102690001021084802F0EBF84FF40051064802F010
:1026A000E6F84FF40071054802F0E1F800BF00BF02
:1026B00010BD000000000440000804400004044075
:1026C00070B504460D46002D73D1A4F120002028DA
:1026D00070D2DFE800F010151A1F24292F343A4079
:1026E000464C52585E636870767C82888E93989DC3
:1026F000A2A8ADB3B9BE1021BF4802F0BAF8AEE04F
:102700000821BD4802F0B5F8A9E04021BB4802F01D
:10271000B0F8A4E00821B94802F0ABF89FE004212A
:10272000B64802F0A6F89AE04FF40041B44802F02F
:10273000A0F894E00421B34802F09BF88FE04FF436
:102740008051AF4802F095F889E04FF40061AC4841
:1027500002F08FF883E04FF48061A94802F089F815
:102760007DE04FF40071A64802F083F877E04FF463
:102770008071A34802F07DF871E04FF40071A24827
:1027800002F077F86BE04FF480719F4802F071F827
:1027900065E080219C4802F06CF860E040219A4896
:1027A00002F067F85BE04FF48061944802F061F852
:1027B00055E055E052E04FF40071904802F059F8AE
:1027C0004DE04FF480718D4802F053F847E04FF42C
:1027D0000041894802F04DF841E04FF480418648BD
:1027E00002F047F83BE04FF40061834802F041F803
:1027F00035E00221804802F03CF830E004217E48B8
:1028000002F037F82BE04021804802F032F826E051
:102810000121794802F02DF821E04FF480517A48E7
:1028200002F027F81BE02021784802F022F816E099
:102830004FF40061744802F01CF810E04FF480611E
:10284000714802F016F80AE040216B4802F011F8D6
:1028500005E02021684802F00CF800E000BFC9E064
:10286000A4F1200020286FD2DFE800F010151A1F15
:1028700024292F343A40464C52585E63686F757B6A
:1028800081878D92979CA1A7ACB2B8BD10215A4800
:1028900001F0EDFFADE00821574801F0E8FFA8E0A6
:1028A0004021564801F0E3FFA3E00821534801F01E
:1028B000DEFF9EE00421514801F0D9FF99E04FF47A
:1028C00000414F4801F0D3FF93E004214D4801F04F
:1028D000CEFF8EE04FF48051494801F0C8FF88E0F8
:1028E0004FF40061464801F0C2FF82E04FF480617E
:1028F000434801F0BCFF7CE04FF40071404801F018
:10290000B6FF76E04FF480713D4801F0B0FF70E013
:102910004FF400713C4801F0AAFF6AE04FF4807167
:10292000394801F0A4FF64E08021374801F09FFF9F
:102930005FE04021344801F09AFF5AE04FF4806193
:102940002E4801F094FF54E052E04FF400712B4800
:1029500001F08DFF4DE04FF48071284801F087FFB2
:1029600047E04FF40041244801F081FF41E04FF47B
:102970008041214801F07BFF3BE04FF400611E489D
:1029800001F075FF35E002211B4801F070FF30E0D7
:102990000421194801F06BFF2BE040211B4801F096
:1029A00066FF26E00121144801F061FF21E04FF4A9
:1029B0008051154801F05BFF1BE02021134801F016
:1029C00056FF16E04FF400610F4801F050FF10E091
:1029D0004FF480610C4801F04AFF0AE040210648AC
:1029E00001F045FF05E02021034801F040FF00E031
:1029F00000BF00BF70BD000000040440000C044094
:102A000000000440001C0440000804400010044082
:102A10003EB504460D46002000902046E11704EB29
:102A20005171C1F3CF010291E11704EB5171C9104B
:102A3000A4EBC10189B20191BDF8080008281DD29C
:102A4000DFE800F004070A0D1013161901200090AA
:102A500015E00220009012E0032000900FE0042017
:102A600000900CE00520009009E00620009006E0B0
:102A70000720009003E00820009000E000BF00BFA6
:102A8000BDF80000052849DABDF8040008281DD269
:102A9000DFE800F004070A0D101316190120019059
:102AA00015E00020019012E0032001900FE00220C9
:102AB00001900CE00520019009E00420019006E05F
:102AC0000720019003E00620019000E000BF00BF56
:102AD000012D0CD11449BDF8002001EB4200018802
:102AE000BDF8043001229A40914301800BE00E4969
:102AF000BDF8002001EB42000188BDF8043001223E
:102B00009A4011430180084ABDF8003012F81310B2
:102B1000BDF80020D0B204F0E3FF03E029462046D0
:102B2000FFF7CEFD3EBD00004A32002010B504463E
:102B30000A492046FDF7A4FE01D2012010BD074935
:102B40002046FDF7A7FE06D805492046FDF798FE6A
:102B500001D80220F2E70020F0E700000080BB442B
:102B60000020004610B504460A492046FDF788FEBD
:102B700001D2012010BD07492046FDF78BFE06D883
:102B800005492046FDF77CFE01D80220F2E700202F
:102B9000F0E700000080BB44002000462DE9F0472C
:102BA0004FF000086148C08AC0F30E095F48008BEF
:102BB000C0F30E0A5E48008801286FD1002438E077
:102BC0005C4830F8140001282DD15B480088C0F320
:102BD000002040B3594830F81400C0F30E074F45A9
:102BE0001CDB574830F81400401C81B2544820F8D0
:102BF000141030F81400032819DB05214F488030E9
:102C000020F8141000214E4820F814102046FFF739
:102C1000FFFE0021474820F8141008E00021484832
:102C200020F8141003E00021454820F81410601C1F
:102C300084B2402CC4DB00243FE03E4830F814004E
:102C4000012833D13C480088C0F3002038B33B480A
:102C500030F81400C0F30E07574521DC38488030A7
:102C600030F81400401C81B23548803020F8141030
:102C700030F8140003281EDB06213048803020F88D
:102C8000141000212E48803020F814102046FFF741
:102C9000BFFE0021274820F814100CE037E005E0C3
:102CA00000212748803020F8141004E00021244837
:102CB000803020F81410601C84B2402CBDDB00264C
:102CC00009E01C4830F8160018B908F101001FFA95
:102CD00080F8701C86B2402EF3DBB8F1400F23DB86
:102CE000002511E01548803030F81500062805D081
:102CF0001248803030F81500052803D10720FFF76F
:102D00007DFA03E0681C85B2402DEBDB0CE000246B
:102D100008E000210A4820F81410803020F8141030
:102D2000601C84B2402CF4DBBDE8F08720730020E7
:102D3000603A0020A0720020746F0020F03B002059
:102D4000A07000202DE9F0474FF000086148408B4B
:102D5000C0F30E095F48808BC0F30E0A5E480088FE
:102D600001286FD1002438E05C4830F814000128B5
:102D70002DD15B480088C0F3002040B3594830F89B
:102D80001400C0F30E074F451CDB574830F8140001
:102D9000401C81B2544820F8141030F81400032865
:102DA00019DB05214F48803820F8141000214E48C7
:102DB00020F814102046FFF72BFE0021474820F88A
:102DC000141008E00021484820F8141003E0002106
:102DD000454820F81410601C84B2402CC4DB002449
:102DE0003FE03E4830F81400012833D13C480088C9
:102DF000C0F3002038B33B4830F81400C0F30E078E
:102E0000574521DC3548803830F81400401C81B229
:102E10003248803820F8141030F8140003281EDBE4
:102E200006213048803820F8141000212B488038C3
:102E300020F814102046FFF7EBFD0021274820F86A
:102E400014100CE037E005E000212448803820F819
:102E5000141004E000212148803820F81410601C70
:102E600084B2402CBDDB002609E01C4830F8160077
:102E700018B908F101001FFA80F8701C86B2402EC4
:102E8000F3DBB8F1400F23DB002511E01548803853
:102E900030F81500062805D01248803830F81500A3
:102EA000052803D10720FFF7A9F903E0681C85B2C4
:102EB000402DEBDB0CE0002408E000210A4820F85C
:102EC0001410803020F81410601C84B2402CF4DB05
:102ED000BDE8F08720730020603A0020A072002037
:102EE000746F0020F03C0020A07100202DE9F0411B
:102EF00005460E462F46082F15D2DFE807F00406D8
:102F0000080A0C0E101201240EE000240CE0032429
:102F10000AE0022408E0052406E0042404E0072473
:102F200002E0062400E000BF00BF012E07D101200F
:102F3000A0400A49098808430849088006E00120A2
:102F4000A04006490988814304480180034801786C
:102F5000052004F0C5FDBDE8F0810000360000202A
:102F600001B50021002000BF05E0002100E0491C60
:102F70007829FCD3401C009A9042F6D308BD014644
:102F800000224FF0E0231A61CA005A6100229A61C0
:102F900005221A6100BF4FF0E022106900F0010223
:102FA0001AB100F48032002AF5D04FF0E022126905
:102FB00022F001024FF0E0231A6100229A6170476B
:102FC00070B500201F490860042004F091FB02F056
:102FD00059FA4FF47A71B0FBF1F4601EB0F1807FC2
:102FE00000D31BE0601E4FF0E021486148170F211D
:102FF000002804DB0A07130E134A135406E00A07DD
:10300000150E124A00F00F031B1FD55400BF0020FD
:103010004FF0E02188610720086100BF00F01AF935
:1030200000F076FB00BF0121002000F03FFC00F023
:1030300004000028F7D00348006840F01000014960
:10304000086070BD1400002000E400E018ED00E00E
:1030500031480068006800F00040E8B92E48006878
:10306000006800F48070B8B12C4800688068401C8B
:103070002A4909688860294800688068012804D1C5
:1030800025480068254909680860234800682349E5
:1030900009684860012070471F480068006800F018
:1030A0000040C8B91C480068006800F4807098B9F6
:1030B00019480068006800F4007068B1164800689C
:1030C0001649096808600020144909684860012011
:1030D0001249096888601DE00F480068006800F028
:1030E0000040B8B90C480068006800F4807088B9E6
:1030F00009480068006800F4007058B90748006883
:103100008068401C05490968886003480068C068F9
:10311000014908600020BEE79401002098010020CA
:1031200001494861704700000090024030B10749F2
:10313000896941F00201054A916105E00349896905
:1031400021F00201014A91617047000000900240A5
:1031500070B50C4613460021114D286000BF17E0E2
:1031600000EB01124FF0004515600E4D5560C1EBAC
:10317000C11505EB450504EB850595605D1E8D4287
:1031800004D900EB01151035D56000E0D060491C72
:103190009942E5D3044DE860044D054E356070BD9D
:1031A00094010020F405000100900240ACD60120FB
:1031B0009801002030B10749896941F40051054A5E
:1031C000916105E00349896921F40051014A916147
:1031D000704700000090024030B50C4613460021B5
:1031E0000F4D286000BF15E000EB01124FF0807515
:1031F0005560C1EBC11505EB450504EB85059560F0
:103200005D1E8D4204D900EB01151035D56000E03C
:10321000D060491C9942E7D3024D286130BD0000BF
:10322000900100200090024010B50121480602F0F4
:10323000CFF800214FF0007002F0CAF810BD000076
:103240000348806940F4801001498861704700009C
:103250000090024008B501211F2002F0A9F80121C9
:10326000880302F0D5F81020ADF8000001208DF899
:10327000020010208DF8030069463A4801F07EFAFA
:103280001020394908608220ADF8000001208DF837
:10329000020004208DF803006946324801F06EFAFE
:1032A0000420ADF8000018208DF8030069462D4871
:1032B00001F064FA0B2201212A4801F0B4FA0B2232
:1032C0000221284801F0AFFA0B220721254801F01E
:1032D000AAFA4FF46050ADF8000018208DF80300F2
:1032E00069462148103801F049FA0B2211461E4860
:1032F000103801F098FA0B220C211B48103801F00D
:1033000092FA0B220D211848103801F08CFA022095
:10331000ADF8000018208DF803006946134801F04D
:103320002DFA3020ADF8000004208DF80300694626
:103330000E4801F023FA0B2201210C4801F073FA28
:103340000B220421094801F06EFA0B2205210748DF
:1033500001F069FA0648806940F4801004498861E8
:1033600008BD0000000004401004044000080440B0
:10337000000001400146024840690840C0B2704761
:10338000009002400248006800F001007047000011
:10339000009002400EB50E4909680968C1F30D415D
:1033A000091F00910B490968096889680191094959
:1033B00009680968029106490968C968044A1160E8
:1033C0000099016001994160029981600EBD000081
:1033D000940100209801002010B500BF5021EFF3A8
:1033E000118081F31188BFF34F8FBFF36F8F00BF40
:1033F00004464020FFF7BEFF28B100F081FA4020CC
:10340000FFF78EFE06E00120FFF7B4FF10B10120A8
:10341000FFF786FE4FF48030FFF782FE4FF4004046
:10342000FFF7A8FF18B14FF40040FFF779FE00BF87
:1034300084F3118800BF10BD2DE9F0410446884691
:1034400002F020F805468948006920F01C06002794
:10345000874D8848854205D38748854202D246F089
:1034600008061AE08448854205D38448854202D282
:1034700046F00C0611E08148854203D37C48854222
:1034800000D20AE07A48854205D37D48854202D2BF
:1034900046F0040601E046F01006744806614FF459
:1034A00000420021404600F0B5FA2068002859D0BB
:1034B00000BF0121404600F0F9F900F004000028A7
:1034C000F7D04FF480520021404600F0A3FA00BF2D
:1034D0000121404600F0EAF900F020000028F7D072
:1034E0001F21404600F0E2F9074607F01C000428BF
:1034F00009D10020606120626248806920F40010D8
:103500006049886149E007F01C0014280BD10020B5
:1035100060614FF4006020625A48806940F40010F6
:103520005849886139E007F01C0008280AD1C00218
:103530006061002020625348806920F400105149E6
:1035400088612AE007F01C00182826D14FF480403B
:103550006061C01020624B48806940F40010494906
:1035600088611AE0206AC0F3CF006169C1F34F019E
:1035700040EA01020021404600F04CFA606930B98F
:103580004048806920F400103E49886105E03D48CC
:10359000806940F400103B4988616068A168084375
:1035A000E16808432169084361690843A169084348
:1035B000E1690843216A0843616A0843A16A084334
:1035C000E16A0843616B0843284909682E4A1140A3
:1035D000084326490860A06BE16B0843216C08434F
:1035E000616C0843A16C0843E16C0843216D0843FA
:1035F000616D08431D494860A06D8860E06DC8603A
:10360000606E216E40EA0140A16E0843E16E0843FE
:10361000216F0843616F0843144989694FF641726D
:103620001140084311498861A06FE16F08430F49B9
:10363000C8611648164988611648C861D4F8A400C4
:10364000D4F8A8100843D4F8AC100843D4F8B0104C
:103650000843D4F8B41040EA8100D4F8B810084305
:103660000B4908600120BDE8F081000000800240A5
:1036700000E1F505002D3101C00E1602008793030D
:1036800080D1F008000001400F8120FF04002000DD
:103690000090024040A001000A794B7942EA0322DF
:1036A000084B03441A64CA7812068B7842EA034234
:1036B0004B7842EA03220B781A43024B03445A64C4
:1036C000704700000080024030B10749096841F0AE
:1036D0000401054A116005E00349096821F004016D
:1036E000014A1160704700000080024030B1074974
:1036F000096841F00801054A116005E003490968BD
:1037000021F00801014A116070470000008002406A
:1037100000B5AFB00121480601F04AFEFFF784FD75
:1037200000F006F900BFFFF72DFE0028FBD1684628
:1037300000F018F90120009080030590C010089057
:10374000002007904FF400700A9000200B904FF07B
:1037500000400E9000201190139014901590099045
:1037600020904FF0007021900011239000202590B0
:10377000269004202890002029904FF480302A9031
:1037800000202B904FF400502C9000202E90002110
:103790006846FFF751FE024908602FB000BD0000E7
:1037A0001400002008B54FF4407001F029FB3D20C3
:1037B0008DF8000006208DF8010000208DF8020031
:1037C00001208DF80300684601F0E4FA08BD00000E
:1037D00030B50246002300243148016800680068C3
:1037E00000F0004008B1002030BD40F2F4508242A9
:1037F00008DD92FBF0F392FBF0F500FB152010B111
:103800005B1C00E00123012B10D14868254D2840A6
:1038100048604868C2F30A0545F0C045284348603F
:10382000086840F000400860C9682AE0002426E0EB
:10383000486820F0C04048601CB9486840F000501B
:10384000486040F2F4504860581EA04211D14868C8
:103850006FF30A00486048685D1EC5EBC51505EBAF
:103860004505A2EB8505C5F30A0545F080452843CB
:103870004860086840F000400860C968641C9C42C9
:10388000D6D3074801600848406900F0040020B121
:103890000420054D6861002068600120A4E7000055
:1038A0009001002000F8FF9F0090024010B50246F2
:1038B0000B461248006900F01C004FF4784404EAFB
:1038C000C22420434FF4F86404EA8314204320F018
:1038D0000200401C094C206100BF0848006900F04C
:1038E00001000028F9D10548406981B24FF6FF7008
:1038F000814200D1002188B210BD0000008002404A
:1039000008B50020009069460748006813F03EFBA8
:10391000009838B14FF0805004490860BFF34F8FD2
:10392000BFF36F8F08BD00003800002004ED00E0F9
:103930000348006840F0010001490860704700003A
:103940000090024000B50120FFF7D0FE0120FFF7F4
:10395000BBFEFFF775FC0120FFF72CFC0120FFF7F1
:10396000E5FB00BD01210160002141608160C16073
:1039700001614FF48041416100218161C1614FF4D7
:1039800000610162002141628162C16201634163A1
:103990008163C1634021016420214164002181646D
:1039A000C164016541658165C165016641668166E5
:1039B000C166016741678167C1674FF08061C0F8E8
:1039C00080104910C0F884100021C0F888104FF40E
:1039D0000011C0F88C100021C0F89010C0F89410AD
:1039E000C0F89810C0F89C10C0F8A0104FF00071FB
:1039F000C0F8A4104912C0F8A8108901C0F8AC1092
:103A00004912C0F8B0100021C0F8B410C0F8B810C6
:103A10007047000010B503460E484261006900F08F
:103A20001C004FF4784404EAC32420434FF4F864A4
:103A300004EA81142043C01C064C206100BF0548E5
:103A4000006900F001000028F9D10248406980B205
:103A500010BD0000008002402DE9F04F8BB0814680
:103A60000E464846FFF77EF88046B8F1000F02D1B7
:103A7000414C002516E006EB860000EBC6003F49EE
:103A800001EB8001A8F1010051F8304006EB8600FF
:103A900000EBC600394901EB8001A8F1010001EB00
:103AA000C00045683648844202D83648844201D274
:103AB000314C0025CA4605F00040D0B125F0004049
:103AC000FCF78DFE0022304BCDE90001FCF7F9FD3B
:103AD000CDE904015046FCF7A3FECDE90201DDE982
:103AE0000423FCF7D5FCCDE90601FCF7ACFE074644
:103AF00018E02846FCF773FE0022234BCDE90001B5
:103B0000FCF7DFFDCDE904015046FCF789FECDE965
:103B10000201DDE90423FCF75CFDCDE90601FCF7B9
:103B200092FE07462046FCF75AFE0022174BCDE9CD
:103B30000401FCF7C6FDCDE90601FCF784FE8346CF
:103B400059463846FCF766FC099050460999FCF73F
:103B500029FC0390FCF764FE0D4A0E4BCDE90401ED
:103B6000FCF73DFDCDE90601FCF76DFE08900898D5
:103B70000BB0BDE8F08F0000A0860100507300205C
:103B8000C0D40100803801000088C340006AF840BA
:103B9000C74B37894160ED3F2DE9FC4106460020C7
:103BA000009001905048008E02282AD101F0A4FB19
:103BB0004D48416A8162C16A406A814208D16946C2
:103BC000002000F03DF9002147484162018689E06C
:103BD0004548008D80B238B96946002000F030F9C0
:103BE0000021414881627DE03F48416AC06A8142CC
:103BF00078D300213C4841620186002000F078F82B
:103C000070E0394846623948817E3748008C61F35C
:103C10000700354908843548C17E3348008C61F37C
:103C20000F20314908843148017F2F48408C61F3CF
:103C300007002D4948842D48417F2B48408C61F373
:103C40000F20294948840846006A4008086208464F
:103C5000006AB0F5C06F04D9002000F049F8BDE853
:103C6000FC812148016A491E323030F8110045F6C6
:103C70005D61884220D11C48016A891E323030F8CB
:103C8000110045F65A41884216D11748008C001F92
:103C900081B215483230FDF761FE05461248016ACF
:103CA000091F323030F811203238016AC91E323013
:103CB00030F8110002EB0047BD4204D11E210B4831
:103CC00001F0DAF902E0002000F012F8002406E02A
:103CD00000210548323020F81410601C84B2B4F57D
:103CE000C06FF5DB00BFBAE7F43D00204E6700204F
:103CF0002DE9F043A7B0074600244E4890F8009005
:103D00004BF6AA322146641C0EA820F811204DF66D
:103D1000CC522146641C20F81120002511E06800D7
:103D2000001D4549095C6800401D434A105C41EA9A
:103D300000222046611C8CB20EA921F81020681CBC
:103D400085B20A2DEBDB00222046611C8CB20EA945
:103D500021F810204CF2A8022046611C8CB20EA95A
:103D600021F8102009F5F6402146621C94B20EAAF3
:103D700022F8110041F244122046611C8CB20EA9B7
:103D800021F8102044222046611C8CB20EA921F893
:103D9000102000222046611C8CB20EA921F81020B0
:103DA0002046611C8CB20EA921F8107021460EA885
:103DB000FDF7D4FD06462046611C8CB20EA921F801
:103DC0001060320C2046611C8CB20EA921F8102024
:103DD00045F65A422046611C8CB20EA921F81020EB
:103DE00045F65D622046611C8CB20EA921F81020B8
:103DF0004FF6FF7000EA440800250EE00EA830F8E8
:103E00001500010A6800401C01AA11540EA810F800
:103E1000150002F81500681C85B2A542EEDB0749C3
:103E2000B1F95809424601A908F033FF27B0BDE8AF
:103E3000F0830000000008604E670020F45D002061
:103E40002DE9F047ADF5247D06460F4600254FF4D9
:103E500000711AA8FCF72FFA34210DA8FCF72BFAF1
:103E600034216846FCF727FAAA46904890F800A04B
:103E70004BF6AA3229466D1C9AA820F811204DF65F
:103E8000CC5229466D1C20F81120002411E060005E
:103E9000001D8749095C6000401D854A105C41EAAD
:103EA00000222846691C8DB29AA921F81020601CB6
:103EB00084B20A2CEBDB00222846691C8DB29AA939
:103EC00021F810204CF2A8022846691C8DB29AA94C
:103ED00021F810200AF5F64029466A1C95B29AAAE4
:103EE00022F8110043F288322846691C8DB29AA943
:103EF00021F81020700000EB45000C306D49C861BE
:103F00000846828B2846691C8DB29AA921F8102098
:103F10006848C28B2846691C8DB29AA921F81020E6
:103F200029469AA8FDF71AFD80464FF6FF7000EA71
:103F3000450900240EE09AA830F81400010A600038
:103F4000401C0DAA11549AA810F8140002F814008D
:103F5000601C84B2AC42EEDB5749B1F958094A46BD
:103F60000DA908F096FE002E66D0B6F5C06F05D2FA
:103F7000B1B23846FDF7F2FC804401E04FF0000892
:103F8000B6F5807F1CD84FF6FF7000EA4609002482
:103F90000CE03888010A6000401C1AAA115417F876
:103FA000020B1AAA02F81400601C84B2B442F0D3C7
:103FB0004149B1F958094A461AA908F06AFE3BE09E
:103FC000B6F5007F38D800240CE03888010A60007C
:103FD000401C1AAA115417F8020B1AAA02F814006E
:103FE000601C84B2FF2CF0DD3349B1F958094FF45D
:103FF00000721AA908F04DFEA6F580704FF6FF7109
:1040000001EA400900240CE03888010A6000401CE5
:104010001AAA115417F8020B1AAA02F81400601C0D
:1040200084B2A6F58070A042EED82349B1F95809B0
:104030004A461AA908F02DFE002529466D1C9AA8AB
:1040400020F811804FEA184229466D1C20F81120F3
:1040500045F65A4229466D1C20F8112045F65D624E
:1040600029466D1C20F811204FF6FF7000EA450923
:1040700000240EE09AA830F81400010A6000401CE9
:104080000DF800109AA810F814000DF81400601C28
:1040900084B2AC42EEDB0849B1F958094A46694698
:1040A00008F0F7FD0DF5247DBDE8F08700000860FD
:1040B0004E670020F43D0020F45D002010B504465A
:1040C0000848006940F0020006490861084644615A
:1040D000006940F04000086140F6FF7000F00AF906
:1040E00010BD0000002002400B48C06800F0010035
:1040F00008B1012070470848C06800F0040008B10A
:104100000220F7E70448C06800F0100008B103205F
:10411000F0E70420EEE700000020024003480069B9
:1041200040F0800001490861704700000020024013
:1041300030B504460D460548006940F001000349CA
:10414000086125800F2000F0D5F830BD0020024026
:104150002DE9F04107460D4614462146284600F059
:104160008BF806461EB94FF0FF30BDE8F081AE4235
:1041700003D105F50060061B00E0361B22463146E0
:104180003846FCF771F82046EFE710B5044600F01A
:10419000A5F82046FFF792FFFFF7C0FF10BD70B5EE
:1041A00003460A460120002109E033F811404FF68A
:1041B000FF75AC4201D0002006E04D1CA9B202EB15
:1041C000D276B1EB660FF0DB00BF70BD2DE9F04198
:1041D00004460D46164600F081F8002707E02188C6
:1041E0002846FFF7A5FFAD1CA41C781C87B206EB80
:1041F000D671B7EB610FF2DBFFF790FFBDE8F081FE
:104200002DE9F04107460C4615462946204600F0A8
:1042100033F8064666B92046FFF7B7FF04F580601D
:10422000FFF7B3FF2A4621463846FFF7CFFF21E0CC
:1042300004F58060401BB04209D104F58060FFF7AF
:10424000A4FF2A4631463846FFF7C0FF12E004F5C6
:104250000060401BB04208D12046FFF796FF2A4677
:1042600031463846FFF7B2FF04E02A463146384669
:10427000FFF7ACFFBDE8F0812DE9F04106460C46A2
:10428000374606F0010008B100BFFEE74FF40060BA
:1042900090FBF4F104FB110008B100BFFEE700251C
:1042A0000AE005FB046721463846FFF778FF01283E
:1042B00000D107E0681C85B24FF4006090FBF4F079
:1042C000A842EEDC00BF4FF4006090FBF4F0A8427F
:1042D00000D100273846BDE8F081000002480349BC
:1042E000486003484860704723016745002002404A
:1042F000AB89EFCD10B5014600BFFFF7F5FE0246D2
:10430000491EFF2300E05B1E002BFCD1012A01D1D6
:104310000029F2D10020044C20613420E06009B96A
:10432000052010BD1046FCE7002002402DE9F041B9
:1043300006460D4614462046E11704EB1161C1F311
:104340000F272846FFF721FF05F58060FFF71DFFC7
:10435000012F02D0022F0ED106E04FF40072294641
:104360003046FFF74DFF07E04FF4806229463046A4
:10437000FFF746FF00E000BF00BF0020BDE8F0816E
:104380000B49096821F0F041094A1160026901688E
:104390001143074A12681143054A1160D0E901121E
:1043A0001143C26811434FF020425165704700002D
:1043B00000000140002101604FF0805101610021A7
:1043C00041600B2181602021C160704700210160A4
:1043D0004160022181600121C1600321016101214D
:1043E000416100210176704719BB027812070379F9
:1043F00042EA8362836842EA8322C36842EA032274
:10440000036942EA831243691A43334B1A60DA069E
:10441000D2F8A42022F46072DB06C3F8A4201A4666
:10442000D2F8A420037E42EAC3122B4B10331A6049
:1044300050E0012926D102781207037942EA83620B
:10444000836842EA8322C36842EA0322036942EA9C
:10445000831243691A43204B1B1D1A604FF0204200
:10446000D2F8A42022F4E0524FF02043C3F8A42055
:104470001A46D2F8A420037E42EA8322164B103358
:104480001A6027E0022925D102781207037942EA4F
:104490008362836842EA8322C36842EA0322036993
:1044A00042EA831243691A430B4B08331A604FF0F8
:1044B0002042D2F8A42022F460424FF02043C3F8F7
:1044C000A4201A46D2F8A420037E42EA4332024BCB
:1044D00010331A6070470000940000A000B58DB042
:1044E00001A8FFF773FF08A8FFF764FF0121084642
:1044F00000F04EFF002001900290072003900A2058
:104500000490012005900920069004208DF81C00DD
:10451000002101A8FFF768FF0020089009900B20F8
:104520000A9020200B90C0050C9008A8FFF728FFE8
:104530000DB000BD2DE9F34F87B00E460798FCF78C
:1045400038F90746FEF7F2FA8146B9F1000F05D1B6
:104550000798FCF72EF909B0BDE8F08F06EB86004E
:1045600000EBC600364901EB80001030A9F10101D3
:1045700050F8314006EB860000EBC600304901EBF5
:1045800080001030A9F1010100EBC10045682D4801
:10459000844202D82C48844201D22C4C0025079832
:1045A000FCF707F906902046FCF703F903900699FB
:1045B000FBF7FEFE8346FCF733F907460022244B47
:1045C000FCF77FF8CDE90401FCF73DF9824605F0E0
:1045D0000040D0B125F00040FCF701F900221D4B4E
:1045E000CDE90001FCF76DF8074688465046FCF718
:1045F00017F93A464346CDE90201FBF7EAFFCDE958
:104600000401FCF720F9824617E02846FCF7E7F89A
:10461000074600220F4BFCF754F8CDE90201504643
:10462000FCF7FEF8CDE90001DDE90223FBF730FFDE
:10463000CDE90401FCF707F9824650468BE70000FC
:1046400050730020C0D4010080380100A086010012
:10465000006AF8400088C3402DE9F34F87B00E464A
:104660000798FCF7A6F8074600F0EAFB8146B9F187
:10467000000F05D10798FCF79CF809B0BDE8F08F52
:1046800006EB860000EBC600364901EB80002030C7
:10469000A9F1010150F8314006EB860000EBC6009D
:1046A000304901EB80002030A9F1010100EBC1008D
:1046B00045682D48844202D82C48844201D22C4CB3
:1046C00000250798FCF775F806902046FCF771F86E
:1046D00003900699FBF76CFE8346FCF7A1F80746AA
:1046E0000022244BFBF7EDFFCDE90401FCF7ABF80A
:1046F000824605F00040D0B125F00040FCF76FF88D
:1047000000221D4BCDE90001FBF7DBFF0746884681
:104710005046FCF785F83A464346CDE90201FBF7DF
:1047200058FFCDE90401FCF78EF8824617E02846D1
:10473000FCF755F8074600220F4BFBF7C2FFCDE907
:1047400002015046FCF76CF8CDE90001DDE90223D7
:10475000FBF79EFECDE90401FCF775F88246504652
:104760008BE7000050730020C0D4010080380100A6
:10477000A0860100006AF8400088C340F0B50246F8
:10478000CF7807F00F05CF7807F010070FB18F78BB
:104790003D431446002016E087063B0E0F884FF07D
:1047A000010C0CFA00FC07EA0C0757B1D4F800C062
:1047B0000F279F402CEA070705FA03FC47EA0C077E
:1047C0002760471CF8B20828E6DB141D0F883E124C
:1047D000002012E087063B0E01278740374057B183
:1047E000D4F800C00F279F402CEA070705FA03FC06
:1047F00047EA0C072760471CF8B20828EADBCF78A5
:10480000282F06D15769B1F800C047EA0C07576155
:1048100008E0CF78482F05D11769B1F800C047EA02
:104820000C071761F0BD70B54D07EB0E082902DAD1
:1048300000F1200501E000F124052C460F269E40E2
:104840002568B54302FA03F63543256070BD02467C
:104850009068084008B1012070470020FCE702463C
:10486000D068084008B1012070470020FCE7416192
:104870007047016170474FF6FF710180022181701E
:104880000421C170704700002DE9F0438BB08146D0
:104890001F26701E711E4910A0EB41001FFA80F800
:1048A000701EC0F34F060024002514E02846691C42
:1048B0008DB22449085C2DF814003DF814202846D8
:1048C000691C8DB21F49085C02EB002080B22DF8F4
:1048D0001400601C84B2B442E8DBB8F1000F0DDDB7
:1048E0001848405D2DF814002146621C94B26A46B7
:1048F00002EB4100018801F500510180002508E02C
:1049000042F220022046611C8CB22DF81020681C57
:1049100085B2C6F11400A0EB0800A842F0DC142117
:104920006846FDF71BF80746B8B2ADF82800380C0A
:10493000ADF82A0069461620FFF782FA0BB0BDE8F1
:10494000F08300004475010810B5FDF71DFA10BD95
:1049500010B50020FDF752FC01F04CF801F0A6F86C
:1049600001F010F910BD000010B5FCF769FA00F075
:1049700085FFFCF7ABF9FDF733FA01F089FAFFF791
:10498000ADFD3220FEF7ECFA00F00CF8FCF75AF916
:1049900000F046F800F006F901200149087010BD4A
:1049A0000000066008B50121102000F001FD6846F6
:1049B000FFF761FF0F220B211848FFF734FF0F228A
:1049C0000C211648FFF72FFF0F220D211348FFF788
:1049D0002AFF0F220E211148FFF725FF0F22114653
:1049E0000E48FFF720FF4FF43840ADF800000120DB
:1049F0008DF8020010208DF8030069460748FFF784
:104A0000BDFE4FF48040ADF8000048208DF8030053
:104A100069460248FFF7B2FE08BD000000100440DE
:104A20002DE9FC4128A103C9CDE90001002746E09A
:104A30004FF400612648FFF71AFF42F2107400BFDE
:104A4000201EA4F101018CB2FAD14FF4006120487C
:104A5000FFF70FFF42F2107400BF201EA4F1010106
:104A60008CB2FAD14CF2503400BF201EA4F10101E7
:104A70008CB2FAD1002605251DE01DF80610284647
:104A800003F006F94FF4FA7400BF201EA4F10101EF
:104A90008CB2FAD1284601F023F90E4908804FF470
:104AA000FA7400BF201EA4F101018CB2FAD1701C6F
:104AB000C6B2681CC5B20C2DDFDD781CC7B2052F4D
:104AC000B6DBBDE8FC81000001010101010101012B
:104AD00000100440340000200146CA1701EB927216
:104AE0009210A1EB820292B9642091FBF0F200FBDC
:104AF000121050B94FF4C87091FBF0F200FB121085
:104B000008B9012070470020FCE70120FAE70020E7
:104B1000F8E7000010B5024600200B4CA368012AFC
:104B200002D0022A0CD105E0084C61688B4200D308
:104B3000012007E0054C61688B4200D3012001E0B1
:104B4000002000BF00BF10BD603A0020207300208D
:104B500010B500240A488088032800D110BD0948F8
:104B60000078C0F3001040B105494888FFF7D2FF34
:104B70000446012C01D100F007F800BFEEE7000069
:104B8000603A0020746F002010B50620FDF736FB58
:104B90000348008820F002000149088010BD000091
:104BA000746F002008B50121042000F001FC0121F0
:104BB000102000F0FDFB6846FFF75DFE0F2202218A
:104BC0001448FFF730FE0F2200211348FFF72BFE99
:104BD0000420ADF8000001208DF8020010208DF8AF
:104BE000030069460B48FFF7C9FD0120ADF800003E
:104BF0008DF8020010208DF8030069460648FFF783
:104C0000BDFD04210348FFF734FE01210248FFF7F0
:104C100030FE08BD000804400010044070B5064690
:104C20000F2545F2AA6024F8020B42F6A02024F8D2
:104C3000020B29466D1C254830F8110024F8020BA0
:104C400029466D1C214830F8110024F8020B294632
:104C50006D1C1E4830F8110024F8020B29466D1C0B
:104C60001A4830F8110024F8020B29466D1C174829
:104C700030F8110024F8020B29466D1C134830F857
:104C8000110024F8020B29466D1C104830F8110061
:104C900024F8020B29466D1C0C4830F8110024F84A
:104CA000020B29466D1C094830F8110024F8020B4C
:104CB00006483238008B20F00400001D03493239C9
:104CC000088300210846FFF7BBF870BD263E002090
:104CD00010B52E4880880C2826D2DFE800F0060B9D
:104CE00010112525161B2525252000202749A1F870
:104CF00090031AE000202549A1F8900315E014E084
:104D000000202249A1F890030FE000201F49A1F8DC
:104D100090030AE000201D49A1F8900305E000205F
:104D20001A49A1F8900300E000BF00BF174880684F
:104D30001649B1F890130844144988600846C068C1
:104D4000B1F8901308441149C860FCF769F910489C
:104D50000078C0F30010B8B10D480078C0F3C0105F
:104D600090B905240948C068A0420DD308480088BE
:104D700020F4807000F5807005490880084600889E
:104D800020F080008030088010BD0000603A0020D4
:104D9000746F002010B5C17809B3164A126802F486
:104DA000E0634FF4E0629A43110A4278C1F10403D0
:104DB0009A4083780F240C4123401A4311010E4A74
:104DC00004781155027802F01F0301229A400378FB
:104DD0005B119B0003F1E023C3F8002109E0017897
:104DE00001F01F0201219140044A03785B1142F84F
:104DF000231010BD0CED00E000E400E080E100E0D5
:104E000002490143024A1160704700000000FA05A0
:104E10000CED00E010B504460021084841628162B3
:104E2000B0F850108185B0F85210C185022101867A
:104E300000210846FFF704F810BD0000F43D0020F3
:104E400010B504460A492046FBF71AFD01D201209D
:104E500010BD07492046FBF71DFD06D80549204631
:104E6000FBF70EFD01D80220F2E70020F0E700007A
:104E70000080BB440020004670B50125134800782F
:104E8000C0F3001008B300240AE01148006828406D
:104E900018B100210F4820F814106D00601C84B276
:104EA000202CF2DB012520240AE009484068284034
:104EB00018B10021074820F814106D00601C84B25E
:104EC000402CF2DB0320FDF799F970BD746F0020D0
:104ED000F43D0020A072002070B501253348808881
:104EE000032861D132480078C0F3001000285BD15C
:104EF00000241BE02F4800682840A0B12E4830F85D
:104F0000140060B92D4830F8140040B92C4830F82E
:104F1000140020B901212B4820F8141003E00021CF
:104F2000284820F814106D00601C84B2202CE1DBAE
:104F3000012520241BE01F4840682840A0B11E48DE
:104F400030F8140060B91D4830F8140040B91C480E
:104F500030F8140020B901211A4820F8141003E099
:104F60000021184820F814106D00601C84B2402CF9
:104F7000E1DB0220FDF742F90C484088012802D00D
:104F800002280CD105E0012008490880FCF7FEFC4E
:104F900009E0012005490880FCF7DAFD03E0002064
:104FA0000249088000BF00BF70BD0000603A0020C9
:104FB000746F0020F43D0020703C0020703D002004
:104FC000703B0020A07200200121134A1278C2F326
:104FD0000012FAB900BF00200AE0104A12680A4025
:104FE0001AB101230E4A22F810304900421C90B237
:104FF0002028F2DB012120200AE0084A52680A40FA
:105000001AB10123064A22F810304900421C90B21E
:105010004028F2DB70470000746F0020F43D002050
:10502000A072002070B5012500240AE01048006835
:10503000284018B100210F4820F814106D00601CA2
:1050400084B2202CF2DB012520240AE008484068C5
:10505000284018B10021074820F814106D00601C8A
:1050600084B2402CF2DB0B20FDF7C8F870BD0000C5
:10507000F43D0020A07200202DE9F04399B00546D0
:105080000F461848D0F800800026002405E015F8E7
:10509000010B0DF80400601C84B2BC42F7DB002455
:1050A0001AE001A9404602F00DFB70B10A20FDF79D
:1050B00057FF404602F0FBFA694600EB0109094838
:1050C00000EBC600416848468847701C86B2054818
:1050D00050F83680601C84B2112CE2DB19B0BDE8B8
:1050E000F0830000647501087047000030B1074983
:1050F000496B41F08071054A516305E00349496BF2
:1051000021F08071014A5163704700000010024095
:1051100010B50F242146641C754830F811007549FC
:1051200088802146641C724830F811107148C18093
:10513000406810B900206F4948602146601C84B265
:105140006B4830F811006B4908812146601C84B21D
:10515000674830F81100674988812146601C84B295
:10516000634830F811106348C1812146601C84B245
:105170005F4830F811005F4908822146601C84B204
:105180005B4830F811105B4841822146601C84B2B4
:10519000574830F81100574988820846808A00280D
:1051A00001DC002088822146601C84B2504830F81F
:1051B00011005049C8820846C08A002801DC00203E
:1051C000C8822146601C84B2494830F81100494920
:1051D00008830846008B002801DC00200883214654
:1051E000601C84B2424830F81100424948830846A6
:1051F000408B002801DC002048832146601C84B2DB
:105200003B4830F811003B4988830846808B0028D2
:1052100001DC002088832146601C84B2344830F8C9
:105220001100344908842146601C84B2304830F8AB
:105230001110304841842146601C84B22C4830F85B
:1052400011002C4988842146601C84B2284830F81B
:1052500011102848C1842146601C84B2244830F8CB
:105260001100244908852146601C84B2204830F88A
:105270001110204841852146601C84B21C4830F83A
:1052800011001C4988852146601C84B2184830F8FA
:1052900011101848C185002015493239086048604E
:1052A0002146601C84B2124830F81100104932398E
:1052B00008802146601C84B20D4830F811000C496A
:1052C000323948802146601C84B2094830F8110008
:1052D0000749323988802146601C84B2044830F87E
:1052E00011103238C1800120FCF788FF10BD00008A
:1052F000263E00202073002030B50020114C646A47
:1053000014B94FF4801306E00E4C646A64084FF43D
:10531000801505EB44031AB900250A4C258609E0DF
:10532000002101E0401C491CB1EB520FFAD30225C9
:10533000044C2586034C646A04EB4005014C65620D
:1053400030BD0000F43D00201FE001210F48FFF7B1
:1053500086FA20B101210D48FFF789FA03E0012107
:105360000A48FFF786FAFFF7F3FBFCF703FF01F0AB
:1053700081F8FBF763FFFFF7ABFCFBF77FFC01F065
:1053800061FB4FF4967011F0B5FADEE700000440BF
:1053900029B1064A126A0243044B1A6204E0034A26
:1053A000126A8243014B1A627047000000100240EB
:1053B00029B1064A926A0243044B9A6204E0034A06
:1053C000926A8243014B9A627047000000100240CB
:1053D00029B1064A52690243044B5A6104E0034A68
:1053E00052698243014B5A6170470000001002402D
:1053F00029B1064A126B0243044B1A6304E0034AC4
:10540000126B8243014B1A63704700000010024088
:1054100029B1064AD26A0243044BDA6204E0034A25
:10542000D26A8243014BDA627047000000100240EA
:105430000449496B21F4803141EA0041014A51633A
:10544000704700000010024001460120B0EB611FD0
:1054500002D10B48006808E00220B0EB611F02D1C6
:105460000748406B01E00648806B01F01F030122F2
:105470009A40104008B1012070470020FCE700006E
:105480000010024000B500F00DF804494968C1F36E
:105490000311034A515CC84000BD000000100240E7
:1054A000A001002010B5194C646804F00C04042C11
:1054B00006D0082C06D00C2C23D149F6404022E01F
:1054C000134820E0114CA46C04F0010444B10F4CCB
:1054D000A46C04F002040CB10E4C02E00C4C00E091
:1054E0000B4C2346094CA46CC4F30644611C074CC6
:1054F000A46CC4F30224621C03FB01F4B4FBF2F0BD
:1055000001E0034800BF00BF10BD000000100240D2
:1055100000127A0000093D000F49496B21F0050196
:105520000D4A516301280CD0042811D11146496B52
:1055300041F0040151631146496B41F0010151638F
:1055400007E00549496B41F00101034A516300E05E
:1055500000BF00BF70470000001002400449496BC3
:1055600021F4004141EAC031014A51637047000013
:10557000001002400349496B21F440710143014A84
:105580005163704700100240024909688143014A93
:1055900011607047042800400348006840F0100084
:1055A0000149086070470000042800400648006870
:1055B00020F010000449086000BF0348006800F0B4
:1055C00020000028F9D070470428004070B500265C
:1055D0000024002500F07AF806463848B6FBF0F4BF
:1055E00037480088A0423CD035490C8040F2B27563
:1055F00010E02846FFF770FA40B1B4F5B77F02D348
:10560000A4F5B77404E0681C85B206E0A4F26D143A
:10561000681C85B2B4F5B67FEBD800BF29488580F9
:10562000002516E027498888FFF756FA30B1012D8A
:1056300004D11D2C01D31D3C09E00CE02248405D43
:10564000A04203D82048405D241A00E003E0681C13
:1056500085B21C2CE6D200BF681C1A498871601CF8
:10566000C8711648B6FBF0F100FB11644FF461609D
:10567000B4FBF0F0134908704FF46160B4FBF0F133
:1056800000FB11403C21B0FBF1F00E4948704FF493
:105690006160B4FBF0F100FB11403C21B0FBF1F282
:1056A00001FB1200074988700B46DA7999799888CE
:1056B00000F01EF803490872002070BD80510100FF
:1056C0001C000020DC310020007401080348006841
:1056D00001040248001D0068084370471828004074
:1056E0000146024800680840704700000428004056
:1056F000F0B503460C461546642093FBF0F0C6B2A5
:10570000642093FBF0F700FB1730C1B2132E02DDCB
:1057100001F16400C1B20846CF1701EB977701EBA6
:10572000A707BAB2072092FBF0F700FB172082B25E
:105730005719601EDFF82CC01CF80000384482B2F4
:10574000CF1701EB9777BF10A1EB87071FB9032C89
:1057500001DA501E82B2072092FBF0F700FB1720FF
:10576000C0B2F0BDF473010810B50120FFF7B8FF17
:1057700008B1FFF72BFF0220FFF7B2FF10B10220A4
:10578000FFF702FF0520FFF7FFFE00F019F910BD3B
:10579000012905D1064A12680243054B1A6006E04A
:1057A000034A1268C3439BB21A40014B1A60704708
:1057B000002800401CB5002401210807FFF718FE4F
:1057C0000121C806FFF714FE0120FFF78FFC10200F
:1057D000FBF7C2FB45F25001884243D0FBF7B3FB15
:1057E0000120FFF799FE4FF4FA60FDF7B9FB08E0DE
:1057F000601CC4B2FA2C01DB01201CBD0A20FDF79D
:10580000AFFB4120FFF720FE0028F1D04FF480705D
:10581000FFF7B0FE0120FFF7A1FE00F0D1F800F085
:10582000D9F801210846FFF7B3FF00F0C9F847F6A1
:10583000FF7000F0B7F800F0C3F800F0CBF83720A5
:105840001E2115230722CDE900100C2140F2E4703F
:1058500000F030F845F250011020FBF785FB00F016
:10586000AFF807E000F0B6F801210846FFF790FF17
:1058700000F0A6F800F00CF80020BEE710B5FFF726
:1058800099FF012803D14FF47A70FDF769FB10BD31
:1058900008B503208DF8000000208DF801000220DB
:1058A0008DF8020001208DF803006846FFF772FAB8
:1058B00008BD00002DE9F05F06460F469046994668
:1058C000DDE90AAB002440F2B270864203DB40F609
:1058D0003300864202DD0120BDE8F09F40F2B27540
:1058E0000AE02846FFF7F8F810B12348044401E025
:1058F00022480444681C85B2B542F2DB781EC7B268
:10590000002510E01E48405D40F2A321484304EB0F
:10591000C0143046FFF7E0F818B1012D01D1194845
:105920000444681C85B2BD42ECDBA8F1010040F2E2
:10593000A321484304EBC014C9EB4910C0EB092074
:1059400004EB0014CAEB0A1004EB80045C44012150
:105950000807FFF74DFD0121C806FFF749FD0120AB
:10596000FFF7C4FB204600F00FF800F029F8FFF71E
:105970002DFE0020B0E700000085E2018033E10148
:10598000007401088051010000B50246FFF704FED3
:10599000100C03490860081D0260FFF707FE00BDF8
:1059A0001828004000B50246FFF7F6FD100C034929
:1059B0000860081D0260FFF7F9FD00BD08280040DF
:1059C00000BF0348006800F020000028F9D07047AD
:1059D000042800400648006820F0080004490860D8
:1059E00000BF0348006800F008000028F9D07047A5
:1059F0000428004070B50026294E4FF480623146DD
:105A00002848FEF7A5FB002446E0002540E0A90059
:105A100001EBC400234931F8100004EB840101EBD1
:105A2000C401214A02EB810121F83500A800401C85
:105A300000EBC4001B4931F8100004EB840101EBBA
:105A4000C40102EB810101EBC5014880A800801C64
:105A500000EBC400134931F8100004EB840101EBA2
:105A6000C40102EB810101EBC5018880A800C01CC4
:105A700000EBC4000B4931F8101004EB840000EB7C
:105A8000C40002EB800000EBC500C180681C85B239
:105A9000022DBCDB601C84B2402CB6DB70BD000064
:105AA000000004085E3600205073002070B5002608
:105AB000314E4FF4806231463048FEF749FB0024F6
:105AC00007E02E4830F814002C4921F81400601C1F
:105AD00084B2B4F5007FF4DB00244AE0002544E002
