:020000040800F2
:10000000F8D60120490200085102000853020008F6
:1000100055020008570200085902000800000000BD
:10002000000000000000000000000000A501000822
:100030005D02000800000000E901000871350008B9
:10004000630200086302000863020008E92A00084E
:1000500063020008630200086302000863020008EC
:1000600063020008630200086302000863020008DC
:1000700063020008630200086302000863020008CC
:1000800063020008630200086302000863020008BC
:100090000000000063020008000000006302000886
:1000A00063020008A9360008630200086302000822
:1000B000630200086302000863020008630200088C
:1000C0000000000063020008000000006302000856
:1000D000630200086302000863020008630200086C
:1000E000630200086302000863020008630200085C
:1000F000630200086302000863020008630200084C
:1001000000000000630200086302000863020008A8
:10011000630200086302000863020008630200082B
:10012000630200086302000863020008630200081B
:10013000630200084D1900080000000000000000E4
:1001400063020008000000000000000063020008D5
:100150000000000000000000000000006302000832
:10016000000000000000000000000000000000008F
:10017000000000000000000000000000000000007F
:100180000000000000000000630200086302000895
:10019000DFF80CD000F008F900480047AD890008EE
:1001A000F8D60120224B19680868B0E8F00F80F3F8
:1001B0000988BFF36F8F4FF0000080F311884EF075
:1001C0000D0E70470000000006480068006880F3CC
:1001D000088862B661B6BFF34F8FBFF36F8F00DF41
:1001E00000BF00BF08ED00E0EFF30980BFF36F8FA1
:1001F0000F4B1A6820E9F00F106008B54FF050005F
:1002000080F31188BFF34F8FBFF36F8F12F09AFB0B
:100210004FF0000080F31188BDE8084019680868B5
:10022000B0E8F00F80F30988BFF36F8F704700BF0D
:1002300030010020EFF305807047000030BF72B638
:1002400062B680F308887047064880470648004732
:10025000FEE7FEE7FEE7FEE7FEE7FEE7FEE7FEE776
:10026000FEE7FEE7A135000891010008004870474D
:100270004434010810B5431A934209D283188818F0
:1002800003E010F8011D03F8011D521EF9D210BD44
:1002900040EA01039B0703D009E008C9121F08C008
:1002A000042AFAD203E011F8013B00F8013B521E88
:1002B000F9D210BDD2B201E000F8012B491EFBD2E9
:1002C00070470022F6E710B513460A460446194661
:1002D000FFF7F0FF204610BD30B50446002003466E
:1002E00000E05B1C934203D2E05CCD5C401BF8D085
:1002F00030BD70B5064603F007FB046805460A22C8
:100300000021304600F018F82C6070BD30B50B4667
:10031000014600202022012409E021FA02F59D4235
:1003200005D303FA02F5491B04FA02F52844151E09
:10033000A2F10102F1DC30BD2DE9F04791460F46F4
:1003400080460446002614F8015B2DB1FFF78EFFAE
:100350000068405DC007F6D12B2D02D02D2D18D09E
:10036000641E4A463946204600F030F827B1396805
:10037000A14201D1C7F8008071054FF002040BD5EE
:100380004042002803DD03F0BFFA0460A007BDE887
:10039000F08746F48066E4E70028F8DA03F0B4FA60
:1003A00004606FF00040F2E7064C074D06E0E0689D
:1003B00040F0010394E8070098471034AC42F6D3AC
:1003C000FFF7EAFE30360108503601082DE9F05FEC
:1003D00082460078002715468B460AF10104B9468B
:1003E000302801D09DB113E014F8010B01277828C3
:1003F00003D0582801D045B10AE00DB1102D07D126
:100400000027102514F8010B02E0082500E00A255A
:100410000026B0460EE005FB080005FB06F10127AB
:1004200001EB10461FFA80F8B6F5803F00D3B946BD
:1004300014F8010B294600F018F80028EBDABBF19C
:10044000000F05D00FB1641E00E05446CBF8004009
:10045000B9F1000F06D003F057FA02210160C81E5F
:10046000BDE8F09F48EA0640FAE73A2800D2303863
:1004700020F02002412A01D3A2F13700884201D3A3
:100480004FF0FF30704770B58C1810F8015B15F015
:10049000070301D110F8013B2A1106D110F8012BF6
:1004A00003E010F8016B01F8016B5B1EF9D12B071B
:1004B00005D40023521E0DD401F8013BFAE710F8D1
:1004C000013BCB1A921C03E013F8015B01F8015BBE
:1004D000521EF9D5A142D8D3002070BD10B54FF4FB
:1004E00000610B4801F097FF052000F0F3FF4FF487
:1004F0000061074801F08DFF0F2000F0EBFF4FF483
:100500000061034801F087FF322000F0E3FF10BDD7
:100510000010044008B50121084602F009F9012144
:10052000022002F005F90121042002F001F9012165
:10053000102002F0FDF8684601F06FFF0F2206213F
:10054000364801F04AFF0F220521344801F045FFEB
:100550000F220421314801F040FF0F2202213048D0
:1005600001F03BFF0F220D212E4801F036FF0F2234
:1005700009212D4801F031FF7020ADF80000012065
:100580008DF8020010208DF803006946234801F021
:10059000CFFE0420ADF8000001208DF802001020ED
:1005A0008DF8030069461E4801F0C2FE4FF400506A
:1005B000ADF8000001208DF8020010208DF8030036
:1005C0006946184801F0B4FE4FF40070ADF8000021
:1005D00001208DF8020010208DF8030069461248B2
:1005E00001F0A6FE04210E4801F015FF40210B4842
:1005F00001F011FF2021094801F00DFF10210748EB
:1006000001F009FF4FF40051064801F004FF4FF4D8
:100610000071054801F0FFFE08BD00000000044025
:1006200000100440000804400004044010B50124F8
:1006300001F00AFF01F0FDFE01F0F7FE02F0E2FF1B
:1006400010F08EFF0348006812F062F811F0FAFF14
:1006500010BD00002C00002008B50121084602F062
:1006600067F80121082002F063F8684601F0D5FE22
:100670000F2200211E4801F0B0FE0F2203211C486A
:1006800001F0ABFE0F2204211A4801F0A6FE0F2252
:100690000521184801F0A1FE0920ADF80000012055
:1006A0008DF8020010208DF803006946104801F013
:1006B0003FFE3020ADF8000001208DF80200102030
:1006C0008DF8030069460B4801F032FE012108480D
:1006D00001F0A1FE0821064801F09DFE1021054809
:1006E00001F099FE2021034801F093FE08BD0000AF
:1006F00000000440000C04402DE9F0430546164676
:100700001F4608464FF0000C002423E0002319E0A8
:1007100003F1010805FB08F804F10109B8FBF9F23F
:100720008A4202D9A2EB010801E0A1EB020842468D
:10073000904202D9104633703C7010B94FF0010C52
:1007400002E05B1C402BE3D300BFBCF1000F00D0E4
:1007500002E0641C042CD9D300BFBDE8F08310B5BF
:10076000012002F025F8002002F022F810BD000060
:10077000014602480844B0F8400870470020004095
:10078000024A0244A2F840187047000000200040CE
:1007900002200A4908800020088148600849086052
:1007A00048600649C86008618882C8820883488317
:1007B0008883086248628862C8627047606F002060
:1007C000343A00200021174A1180174A9160D16005
:1007D0001180002022E000221349103141F820202E
:1007E00001F5807121F81020803121F8102080312E
:1007F00021F81020803121F81020803121F81020BC
:100800000A4921F81020803121F81020803121F888
:100810001020803121F81020411C88B24028DADBFA
:1008200070470000B46B0020A0360020E06C002070
:100830007CB504460D466DB300940020019023E082
:100840004FF48051284801F0E6FD9DF8000000F0CB
:10085000800028B14FF40041234801F0DCFD04E0A2
:100860004FF40041204801F0D4FD4FF480511E4860
:1008700001F0CFFD9DF800004006000E00909DF8AD
:100880000400401CC0B201909DF804000828D7DB8A
:1008900001207CBD0020009001901EE09DF800002A
:1008A0004006000E00904FF480410F4801F0A9FD72
:1008B00020B19DF8000040F0010000904FF48051FD
:1008C000094801F0A8FD4FF48051074801F0A1FD4F
:1008D0009DF80400401CC0B201909DF80400082857
:1008E000DCDB9DF80000D4E70010044010B50821BF
:1008F000124801F090FD0221114801F08CFD0A2000
:1009000000F0E8FD002405E02146002002F008FC8C
:10091000601C84B2082CF7DB00240CE02146002088
:1009200002F04EFC0A2000F0D5FD0021204600F028
:1009300009FD601C84B2402CF0DB10BD00080440AF
:100940000010044038B50121084601F0F1FE0121F4
:10095000022001F0EDFE0121042001F0E9FE012159
:10096000082001F0E5FE0121102001F0E1FE012147
:10097000802001F0DDFE684601F04FFD0F220821C6
:10098000CE4801F02AFD0F220921CC4801F025FDB7
:100990000F220A21C94801F020FD0F220B21C74870
:1009A00001F01BFD0F220C21C44801F016FD0F229F
:1009B0001146C24801F011FD0F220321C04801F089
:1009C0000CFD0F220421BE4801F007FD0F22114645
:1009D000BB4801F002FD0F220E21B94801F0FDFCD9
:1009E0000F220B21B64801F0F8FC0F220121B44878
:1009F00001F0F3FC0F220221B14801F0EEFC0F22BE
:100A00000021AF4801F0E9FC0F220621AC4801F0BB
:100A1000E4FC0F220521AA4801F0DFFC0F22092186
:100A2000A84801F0DAFC0F220821A64801F0D5FC05
:100A30000F220721A34801F0D0FC0F220621A14874
:100A400001F0CBFC0F220C219E4801F0C6FC0F22C6
:100A50000B219C4801F0C1FC0F220A21994801F0AA
:100A6000BCFC0F220321974801F0B7FC0F2206219E
:100A7000954801F0B2FC0F220321934801F0ADFC30
:100A80000F220221904801F0A8FC0F220A218E4873
:100A900001F0A3FC0F2209218B4801F09EFC0F22DC
:100AA0000821894801F099FC0F220621874801F0AE
:100AB00094FC0F220521854801F08FFC0F220121B3
:100AC000824801F08AFC0F220221814801F085FC56
:100AD0004FF41F40ADF8000001208DF802001020F7
:100AE0008DF803006946754801F022FC4CF67F0042
:100AF000ADF8000001208DF8020010208DF80300F1
:100B000069466F4801F014FC41F6C870ADF800006A
:100B100001208DF8020010208DF803006946694815
:100B200001F006FC40F24C70ADF8000001208DF899
:100B3000020010208DF803006946634801F0F8FBBD
:100B40006220ADF8000001208DF8020010208DF821
:100B5000030069465D4801F0EBFB0420ADF800009E
:100B600001208DF8020010208DF8030069465848D6
:100B700001F0DEFB1021524801F04DFC08215048E5
:100B800001F049FC4021504801F045FC08214E4845
:100B900001F041FC04214C4801F03DFC4FF40041C0
:100BA000464801F038FC0421494801F034FC4FF478
:100BB0008051424801F02FFC4FF400613F4801F0A2
:100BC0002AFC4FF480613D4801F025FC4FF4007190
:100BD0003A4801F020FC4FF48071384801F01BFCCA
:100BE0004FF40071374801F016FC4FF4807135481E
:100BF00001F011FC8021334801F00DFC4021314807
:100C000001F009FC4FF480612F4801F004FC4FF41F
:100C100000712D4801F0FFFB4FF480712A4801F06C
:100C2000FAFB4FF40041264801F0F5FB4FF48041F8
:100C3000234801F0F0FB4FF40061214801F0EBFB89
:100C400002211F4801F0E7FB04211D4801F0E3FBEE
:100C500040211E4801F0DFFB0121194801F0DBFBB8
:100C60004FF48051174801F0D6FB2021174801F0BE
:100C7000D2FB4FF40061134801F0CDFB4FF48061CB
:100C8000104801F0C8FB40210D4801F0C4FB2021B1
:100C90000B4801F0C0FB08210A4801F0BCFB02210F
:100CA0000A4801F0B8FB002405E00020094921F8BA
:100CB0001400601C84B20A2CF7DB38BD000004402D
:100CC0000004044000080440000C044000100440EC
:100CD000001C04408A32002070B50546BE4885805D
:100CE0000C2D72D2DFE805F0064172847171BAFCF6
:100CF000717171FBFFF766FDFFF74AFD1021B748E0
:100D000001F089FB2021B54801F083FB0220B449A2
:100D10000880002405E02146002002F001FA601C52
:100D200084B2082CF7DB002410E02146002002F0FA
:100D300047FA0A2000F0CEFB0021204600F002FB1B
:100D40000021A84820F81410601C84B2402CECDB71
:100D50000020A149C8604880A349A1F8340C084686
:100D6000008B20F00400088334E1FFF72BFD1021F5
:100D70009A4801F050FB2021984801F04AFB0220DC
:100D800097490880002405E02146002002F0C8F9B8
:100D9000601C84B2082CF7DB00240CE02146002004
:100DA00002F00EFA0A2000F095FB0021204600F028
:100DB000C9FA601C84B2402CF0DB8C48008820F01B
:100DC0000200801C8949088004E102E1874800880C
:100DD00020F010001030854908800846008820F473
:100DE000807008800846008820F080000880F1E0CC
:100DF0007E48008820F010007C4908800846008862
:100E000020F48070088000207349C8601021734866
:100E100001F001FB2021714801F0FBFA002405E0FC
:100E20002146002002F07CF9601C84B2082CF7DB1C
:100E3000002410E02146002002F0C2F90A2000F050
:100E400049FB0021204600F07DFA0021654820F88A
:100E50001410601C84B2402CECDBBBE0FFF798FC64
:100E600010215E4801F0D7FA20215C4801F0D1FA48
:100E70005E48008820F010005C4908800846008821
:100E800020F4807008800846008820F080000880E8
:100E9000002051490880C860002405E02146002058
:100EA00002F03EF9601C84B2082CF7DB0A2000F047
:100EB00011FB00241EE02146002002F081F90A20E7
:100EC00000F008FB0021204600F03CFA00214848D1
:100ED00020F8141000F5807020F8141001E049E0AB
:100EE0000BE000F5807020F814103E4820F8141034
:100EF000601C84B2402CDEDB6CE03C48008820F0B3
:100F000010003A490880002033490880374800889B
:100F100020F080003549088000202F49C86010214A
:100F20002E4801F076FA20212C4801F074FA0024B2
:100F300005E02146002002F0F3F8601C84B2082C82
:100F4000F7DB0A2000F0C6FA002410E0214600205A
:100F500002F036F90A2000F0BDFA0021204600F028
:100F6000F1F900211F4820F81410601C84B2402CB5
:100F7000ECDB2FE0FFF726FCFFF70AFC1B4800889C
:100F800020F01000194908800846008820F08000F1
:100F90000880002405E02146002002F0C1F8601C12
:100FA00084B2082CF7DB0A2000F094FA00240DE04C
:100FB0002146002002F004F90021204600F0C2F989
:100FC0000021084820F81410601C84B2402CEFDB8C
:100FD00000E000BF00BF70BDA0360020000C044040
:100FE000606F0020E06E0020343A0020B46B0020D7
:100FF000B037002070B504460D46002D73D1A4F122
:101000002000202870D2DFE800F010151A1F2429D4
:101010002F343A40464C52585E636870767C828822
:101020008E93989DA2A8ADB3B9BE1021BF4801F020
:10103000F2F9AEE00821BD4801F0EDF9A9E0402148
:10104000BB4801F0E8F9A4E00821B94801F0E3F950
:101050009FE00421B64801F0DEF99AE04FF4004128
:10106000B44801F0D8F994E00421B34801F0D3F971
:101070008FE04FF48051AF4801F0CDF989E04FF493
:101080000061AC4801F0C7F983E04FF48061A948E2
:1010900001F0C1F97DE04FF40071A64801F0BBF901
:1010A00077E04FF48071A34801F0B5F971E04FF497
:1010B0000071A24801F0AFF96BE04FF480719F48D6
:1010C00001F0A9F965E080219C4801F0A4F960E0F5
:1010D00040219A4801F09FF95BE04FF48061944809
:1010E00001F099F955E055E052E04FF40071904855
:1010F00001F091F94DE04FF480718D4801F08BF9CA
:1011000047E04FF40041894801F085F941E04FF490
:101110008041864801F07FF93BE04FF4006183484D
:1011200001F079F935E00221804801F074F930E0EE
:1011300004217E4801F06FF92BE04021804801F046
:101140006AF926E00121794801F065F921E04FF4C0
:1011500080517A4801F05FF91BE02021784801F0C6
:101160005AF916E04FF40061744801F054F910E0A8
:101170004FF48061714801F04EF90AE040216B485C
:1011800001F049F905E02021684801F044F900E048
:1011900000BFC9E0A4F1200020286FD2DFE800F0F2
:1011A00010151A1F24292F343A40464C52585E63BA
:1011B000686F757B81878D92979CA1A7ACB2B8BDF3
:1011C00010215A4801F025F9ADE00821574801F0F7
:1011D00020F9A8E04021564801F01BF9A3E00821BE
:1011E000534801F016F99EE00421514801F011F92D
:1011F00099E04FF400414F4801F00BF993E00421CE
:101200004D4801F006F98EE04FF48051494801F055
:1012100000F988E04FF40061464801F0FAF882E0F6
:101220004FF48061434801F0F4F87CE04FF4007122
:10123000404801F0EEF876E04FF480713D4801F04F
:10124000E8F870E04FF400713C4801F0E2F86AE021
:101250004FF48071394801F0DCF864E080213748B0
:1012600001F0D7F85FE04021344801F0D2F85AE0AD
:101270004FF480612E4801F0CCF854E052E04FF476
:1012800000712B4801F0C5F84DE04FF480712848FB
:1012900001F0BFF847E04FF40041244801F0B9F8ED
:1012A00041E04FF48041214801F0B3F83BE04FF4B6
:1012B00000611E4801F0ADF835E002211B4801F045
:1012C000A8F830E00421194801F0A3F82BE04021F0
:1012D0001B4801F09EF826E00121144801F099F81E
:1012E00021E04FF48051154801F093F81BE02021D4
:1012F000134801F08EF816E04FF400610F4801F03A
:1013000088F810E04FF480610C4801F082F80AE0A0
:101310004021064801F07DF805E02021034801F056
:1013200078F800E000BF00BF70BD0000000404407A
:10133000000C044000000440001C0440000804406D
:10134000001004403EB504460D46002000902046A3
:10135000E11704EB5171C1F3CF010291E11704EBE6
:101360005171C910A4EBC10189B20191BDF8080007
:1013700008281DD2DFE800F004070A0D1013161923
:101380000120009015E00220009012E00320009060
:101390000FE0042000900CE00520009009E00620FA
:1013A000009006E00720009003E00820009000E095
:1013B00000BF00BFBDF80000052849DABDF80400F1
:1013C00008281DD2DFE800F004070A0D10131619D3
:1013D0000120019015E00020019012E0032001900F
:1013E0000FE0022001900CE00520019009E00420AC
:1013F000019006E00720019003E00620019000E044
:1014000000BF00BF012D0CD11449BDF8002001EB35
:1014100042000188BDF8043001229A4091430180C6
:101420000BE00E49BDF8002001EB42000188BDF839
:10143000043001229A4011430180084ABDF800306F
:1014400012F81310BDF80020D0B202F003FA03E046
:1014500029462046FFF7CEFD3EBD00008A3200201F
:101460002DE9F04105460E462F46082F15D2DFE83C
:1014700007F00406080A0C0E101201240EE00024E6
:101480000CE003240AE0022408E0052406E004241A
:1014900004E0072402E0062400E000BF00BF012EA4
:1014A00007D10120A0400A4909880843084908805B
:1014B00006E00120A04006490988814304480180D4
:1014C00003480178052002F0C5F9BDE8F08100006D
:1014D0004200002001B50021002000BF05E00021EE
:1014E00000E0491C7829FCD3401C009A9042F6D3B6
:1014F00008BD014600224FF0E0231A61CA005A617C
:1015000000229A6105221A6100BF4FF0E0221069A3
:1015100000F001021AB100F48032002AF5D04FF039
:10152000E022126922F001024FF0E0231A6100224A
:101530009A61704770B500201F490860042002F0CE
:1015400003F801F05FF94FF47A71B0FBF1F4601E1B
:10155000B0F1807F00D31BE0601E4FF0E0214861B6
:1015600048170F21002804DB0A07130E134A1354EF
:1015700006E00A07150E124A00F00F031B1FD55490
:1015800000BF00204FF0E02188610720086100BF04
:1015900000F01AF900F076FB00BF0121002000F0F6
:1015A0003FFC00F004000028F7D00348006840F03A
:1015B00010000149086070BD1400002000E400E044
:1015C00018ED00E031480068006800F00040E8B91C
:1015D0002E480068006800F48070B8B12C4800689C
:1015E0008068401C2A49096888602948006880682A
:1015F000012804D125480068254909680860234866
:101600000068234909684860012070471F48006846
:10161000006800F00040C8B91C480068006800F489
:10162000807098B919480068006800F4007068B1CB
:1016300016480068164909680860002014490968BE
:10164000486001201249096888601DE00F48006861
:10165000006800F00040B8B90C480068006800F469
:10166000807088B909480068006800F4007058B9B3
:10167000074800688068401C05490968886003487D
:101680000068C068014908600020BEE7A001002092
:10169000A401002001494861704700000090024009
:1016A00030B10749896941F00201054A916105E0BD
:1016B0000349896921F00201014A916170470000E4
:1016C0000090024070B50C4613460021114D286071
:1016D00000BF17E000EB01124FF0004515600E4D02
:1016E0005560C1EBC11505EB450504EB850595601B
:1016F0005D1E8D4204D900EB01151035D56000E068
:10170000D060491C9942E5D3044DE860044D054E74
:10171000356070BDA0010020F4050001009002407A
:10172000ECD20120A401002030B10749896941F4BD
:101730000051054A916105E00349896921F400518E
:10174000014A9161704700000090024030B50C469C
:10175000134600210F4D286000BF15E000EB011279
:101760004FF080755560C1EBC11505EB450504EBE5
:10177000850595605D1E8D4204D900EB011510357D
:10178000D56000E0D060491C9942E7D3024D286142
:1017900030BD00009C0100200090024010B50121E6
:1017A000480600F0D5FF00214FF0007000F0D0FF98
:1017B00010BD00000348806940F480100149886131
:1017C000704700000090024008B501211F2000F082
:1017D000AFFF0121880300F0DBFF1020ADF800000F
:1017E00001208DF8020010208DF8030069463A4868
:1017F00000F09EFD1020394908608220ADF80000FD
:1018000001208DF8020004208DF80300694632485B
:1018100000F08EFD0420ADF8000018208DF80300C4
:1018200069462D4800F084FD0B2201212A4800F072
:10183000D4FD0B220221284800F0CFFD0B22072106
:10184000254800F0CAFD4FF46050ADF800001820A4
:101850008DF8030069462148103800F069FD0B221D
:1018600011461E48103800F0B8FD0B220C211B4811
:10187000103800F0B2FD0B220D211848103800F08E
:10188000ACFD0220ADF8000018208DF80300694679
:10189000134800F04DFD3020ADF8000004208DF815
:1018A000030069460E4800F043FD0B2201210C485D
:1018B00000F093FD0B220421094800F08EFD0B225D
:1018C0000521074800F089FD0648806940F4801032
:1018D0000449886108BD0000000004401004044071
:1018E00000080440000001400146024840690840E9
:1018F000C0B27047009002400248006800F001004A
:1019000070470000009002400EB50E490968096852
:10191000C1F30D41091F00910B49096809688968E5
:101920000191094909680968029106490968C9686D
:10193000044A116000990160019941600299816037
:101940000EBD0000A0010020A401002010B500BFC2
:101950005021EFF3118081F31188BFF34F8FBFF354
:101960006F8F00BF04464020FFF7BEFF28B100F094
:1019700081FA4020FFF78EFE06E00120FFF7B4FF5A
:1019800010B10120FFF786FE4FF48030FFF782FE92
:101990004FF40040FFF7A8FF18B14FF40040FFF7E5
:1019A00079FE00BF84F3118800BF10BD2DE9F0411E
:1019B0000446884600F026FF05468948006920F065
:1019C0001C060027874D8848854205D387488542F5
:1019D00002D246F008061AE08448854205D38448BE
:1019E000854202D246F00C0611E08148854203D3BD
:1019F0007C48854200D20AE07A48854205D37D487A
:101A0000854202D246F0040601E046F01006744812
:101A100006614FF400420021404600F0B5FA20680C
:101A2000002859D000BF0121404600F0F9F900F02C
:101A300004000028F7D04FF480520021404600F007
:101A4000A3FA00BF0121404600F0EAF900F02000AF
:101A50000028F7D01F21404600F0E2F9074607F0C2
:101A60001C00042809D1002060612062624880695E
:101A700020F400106049886149E007F01C00142838
:101A80000BD1002060614FF4006020625A488069E9
:101A900040F400105849886139E007F01C0008281C
:101AA0000AD1C0026061002020625348806920F49E
:101AB0000010514988612AE007F01C00182826D13F
:101AC0004FF480406061C01020624B48806940F450
:101AD0000010494988611AE0206AC0F3CF006169AB
:101AE000C1F34F0140EA01020021404600F04CFAE8
:101AF000606930B94048806920F400103E4988612F
:101B000005E03D48806940F400103B498861606809
:101B1000A1680843E16808432169084361690843F3
:101B2000A1690843E1690843216A0843616A0843DF
:101B3000A16A0843E16A0843616B084328490968C0
:101B40002E4A1140084326490860A06BE16B084308
:101B5000216C0843616C0843A16C0843E16C0843A5
:101B6000216D0843616D08431D494860A06D886080
:101B7000E06DC860606E216E40EA0140A16E0843CE
:101B8000E16E0843216F0843616F08431449896976
:101B90004FF641721140084311498861A06FE16F0F
:101BA00008430F49C8611648164988611648C8613C
:101BB000D4F8A400D4F8A8100843D4F8AC10084313
:101BC000D4F8B0100843D4F8B41040EA8100D4F837
:101BD000B81008430B4908600120BDE8F0810000FF
:101BE0000080024000E1F505002D3101C00E160213
:101BF0000087930380D1F008000001400F8120FF8F
:101C0000040020000090024040A001000A794B79B6
:101C100042EA0322084B03441A64CA7812068B78FE
:101C200042EA03424B7842EA03220B781A43024B02
:101C300003445A64704700000080024030B10749F5
:101C4000096841F00401054A116005E0034909688B
:101C500021F00401014A1160704700000080024039
:101C600030B10749096841F00801054A116005E0F3
:101C70000349096821F00801014A1160704700001A
:101C80000080024000B5AFB00121480600F050FDD1
:101C9000FFF784FD00F006F900BFFFF72DFE0028D6
:101CA000FBD1684600F018F90120009080030590F0
:101CB000C0100890002007904FF400700A90002098
:101CC0000B904FF000400E90002011901390149054
:101CD0001590099020904FF00070219000112390F2
:101CE00000202590269004202890002029904FF471
:101CF00080302A9000202B904FF400502C90002030
:101D00002E9000216846FFF751FE024908602FB06F
:101D100000BD00001400002008B54FF4407000F032
:101D2000DBFC3D208DF8000006208DF8010000202E
:101D30008DF8020001208DF80300684600F096FC43
:101D400008BD000030B50246002300243148016878
:101D50000068006800F0004008B1002030BD40F28B
:101D6000F450824208DD92FBF0F392FBF0F500FBA9
:101D7000152010B15B1C00E00123012B10D1486835
:101D8000254D284048604868C2F30A0545F0C04523
:101D900028434860086840F000400860C9682AE0AD
:101DA000002426E0486820F0C04048601CB948681C
:101DB00040F00050486040F2F4504860581EA04285
:101DC00011D148686FF30A00486048685D1EC5EB92
:101DD000C51505EB4505A2EB8505C5F30A0545F0DC
:101DE000804528434860086840F000400860C968A2
:101DF000641C9C42D6D3074801600848406900F043
:101E0000040020B10420054D6861002068600120B5
:101E1000A4E700009C01002000F8FF9F0090024012
:101E200010B502460B461248006900F01C004FF442
:101E3000784404EAC22420434FF4F86404EA83148B
:101E4000204320F00200401C094C206100BF0848DC
:101E5000006900F001000028F9D10548406981B20D
:101E60004FF6FF70814200D1002188B210BD000002
:101E70000080024008B500200090694607480068CD
:101E800010F078FF009838B14FF080500449086096
:101E9000BFF34F8FBFF36F8F08BD000044000020D9
:101EA00004ED00E00348006840F0010001490860CB
:101EB000704700000090024000B50120FFF7D0FEFF
:101EC0000120FFF7BBFEFFF775FC0120FFF72CFC9C
:101ED0000120FFF7E5FB00BD012101600021416009
:101EE0008160C16001614FF48041416100218161E5
:101EF000C1614FF400610162002141628162C162EF
:101F0000016341638163C163402101642021416415
:101F100000218164C164016541658165C165016617
:101F200041668166C166016741678167C1674FF09D
:101F30008061C0F880104910C0F884100021C0F8FA
:101F400088104FF40011C0F88C100021C0F89010D8
:101F5000C0F89410C0F89810C0F89C10C0F8A010F9
:101F60004FF00071C0F8A4104912C0F8A810890100
:101F7000C0F8AC104912C0F8B0100021C0F8B4107D
:101F8000C0F8B8107047000010B503460E48426113
:101F9000006900F01C004FF4784404EAC324204395
:101FA0004FF4F86404EA81142043C01C064C2061FD
:101FB00000BF0548006900F001000028F9D102487F
:101FC000406980B210BD00000080024010B5044698
:101FD0000848006940F0020006490861084644616B
:101FE000006940F04000086140F6FF7000F0AAF878
:101FF00010BD0000002002400B48C06800F0010046
:1020000008B1012070470848C06800F0040008B11A
:102010000220F7E70448C06800F0100008B1032070
:10202000F0E70420EEE700000020024003480069CA
:1020300040F0800001490861704700000020024024
:1020400030B504460D460548006940F001000349DB
:10205000086125800F2000F075F830BD0020024097
:102060002DE9F04107460D4614462146284600F06A
:102070002BF806461EB94FF0FF30BDE8F081AE42A6
:1020800003D105F50060061B00E0361B22463146F1
:102090003846FEF7EFF82046EFE770B503460A46EC
:1020A0000120002109E033F811404FF6FF75AC42E2
:1020B00001D0002006E04D1CA9B202EBD276B1EBB4
:1020C000660FF0DB00BF70BD2DE9F04106460C46FF
:1020D000374606F0010008B100BFFEE74FF400608C
:1020E00090FBF4F104FB110008B100BFFEE70025EE
:1020F0000AE005FB046721463846FFF7CEFF0128BA
:1021000000D107E0681C85B24FF4006090FBF4F04A
:10211000A842EEDC00BF4FF4006090FBF4F0A84250
:1021200000D100273846BDE8F0810000024803498D
:10213000486003484860704723016745002002401B
:10214000AB89EFCD10B5014600BFFFF755FF024642
:10215000491EFF2300E05B1E002BFCD1012A01D1A8
:102160000029F2D10020044C20613420E06009B93C
:10217000052010BD1046FCE7002002400B4909680D
:1021800021F0F041094A1160026901681143074AD0
:1021900012681143054A1160D0E901121143C26867
:1021A00011434FF02042516570470000000001408C
:1021B000002101604FF080510161002141600B213D
:1021C00081602021C16070470021016041600221CF
:1021D00081600121C1600321016101214161002170
:1021E0000176704719BB02781207037942EA8362CD
:1021F000836842EA8322C36842EA0322036942EA0F
:10220000831243691A43334B1A60DA06D2F8A420CA
:1022100022F46072DB06C3F8A4201A46D2F8A42088
:10222000037E42EAC3122B4B10331A6050E001299F
:1022300026D102781207037942EA8362836842EA70
:102240008322C36842EA0322036942EA8312436994
:102250001A43204B1B1D1A604FF02042D2F8A420D5
:1022600022F4E0524FF02043C3F8A4201A46D2F8DB
:10227000A420037E42EA8322164B10331A6027E023
:10228000022925D102781207037942EA8362836822
:1022900042EA8322C36842EA0322036942EA8312C4
:1022A00043691A430B4B08331A604FF02042D2F8AF
:1022B000A42022F460424FF02043C3F8A4201A4621
:1022C000D2F8A420037E42EA4332024B10331A6054
:1022D00070470000940000A000B58DB001A8FFF782
:1022E00073FF08A8FFF764FF0121084600F010FA09
:1022F000002001900290072003900A200490012002
:1023000005900920069004208DF81C00002101A8EA
:10231000FFF768FF0020089009900B200A9020200A
:102320000B90C0050C9008A8FFF728FF0DB000BD6A
:10233000F0B50246CF7807F00F05CF7807F0100709
:102340000FB18F783D431446002016E087063B0E00
:102350000F884FF0010C0CFA00FC07EA0C0757B18C
:10236000D4F800C00F279F402CEA070705FA03FCAA
:1023700047EA0C072760471CF8B20828E6DB141D63
:102380000F883E12002012E087063B0E012787408F
:10239000374057B1D4F800C00F279F402CEA0707F9
:1023A00005FA03FC47EA0C072760471CF8B2082827
:1023B000EADBCF78282F06D15769B1F800C047EA89
:1023C0000C07576108E0CF78482F05D11769B1F89D
:1023D00000C047EA0C071761F0BD70B54D07EB0E62
:1023E000082902DA00F1200501E000F124052C465D
:1023F0000F269E402568B54302FA03F63543256053
:1024000070BD02469068084008B101207047002066
:10241000FCE741617047016170474FF6FF71018031
:10242000022181700421C170704710B5FEF75EFA79
:1024300010BD10B50020FEF74FFC00F09BFC00F033
:10244000F5FC00F05FFD10BD10B5FEF705F900F0DA
:10245000D5FBFEF75FF8FEF775FA00F0EBFDFFF72E
:102460003BFF3220FFF736F800F00CF8FEF736F8A5
:1024700000F046F800F0BEF801200149087010BDD8
:102480000000066008B50121102000F051F96846EF
:10249000FFF7C3FF0F220B211848FFF79EFF0F2203
:1024A0000C211648FFF799FF0F220D211348FFF763
:1024B00094FF0F220E211148FFF78FFF0F221146C4
:1024C0000E48FFF78AFF4FF43840ADF800000120B6
:1024D0008DF8020010208DF8030069460748FFF7C9
:1024E00027FF4FF48040ADF8000048208DF803002E
:1024F00069460248FFF71CFF08BD000000100440B9
:102500002DE9FC4128A103C9CDE90001002746E0DF
:102510004FF400612648FFF77CFF42F2107400BFC1
:10252000201EA4F101018CB2FAD14FF400612048C1
:10253000FFF771FF42F2107400BF201EA4F10101E9
:102540008CB2FAD14CF2503400BF201EA4F101012C
:102550008CB2FAD1002605251DE01DF8061028468C
:1025600001F09CF94FF4FA7400BF201EA4F10101A0
:102570008CB2FAD1284600F035FD0E4908804FF4A0
:10258000FA7400BF201EA4F101018CB2FAD1701CB4
:10259000C6B2681CC5B20C2DDFDD781CC7B2052F92
:1025A000B6DBBDE8FC810000010101010101010170
:1025B00000100440400000200146CA1701EB92724F
:1025C0009210A1EB820292B9642091FBF0F200FB21
:1025D000121050B94FF4C87091FBF0F200FB1210CA
:1025E00008B9012070470020FCE70120FAE700202D
:1025F000F8E7000008B50121042000F099F8012156
:10260000102000F095F86846FFF707FF0F2202211F
:102610001448FFF7E2FE0F2200211348FFF7DDFE0A
:102620000420ADF8000001208DF8020010208DF884
:10263000030069460B48FFF77BFE0120ADF8000060
:102640008DF8020010208DF8030069460648FFF758
:102650006FFE04210348FFF7DEFE01210248FFF769
:10266000DAFE08BD000804400010044010B5C1782F
:1026700009B3164A126802F4E0634FF4E0629A4329
:10268000110A4278C1F104039A4083780F240C4167
:1026900023401A4311010E4A04781155027802F0C2
:1026A0001F0301229A4003785B119B0003F1E02392
:1026B000C3F8002109E0017801F01F0201219140D7
:1026C000044A03785B1142F8231010BD0CED00E0C2
:1026D00000E400E080E100E002490143024A1160A9
:1026E000704700000000FA050CED00E030B107492A
:1026F000496B41F08071054A516305E00349496B1C
:1027000021F08071014A51637047000000100240BF
:1027100029B1064A126A0243044B1A6204E0034AD2
:10272000126A8243014B1A62704700000010024097
:1027300029B1064A926A0243044B9A6204E0034AB2
:10274000926A8243014B9A62704700000010024077
:1027500029B1064A52690243044B5A6104E0034A14
:1027600052698243014B5A617047000000100240D9
:1027700029B1064A126B0243044B1A6304E0034A70
:10278000126B8243014B1A63704700000010024035
:1027900029B1064AD26A0243044BDA6204E0034AD2
:1027A000D26A8243014BDA62704700000010024097
:1027B0000449496B21F4803141EA0041014A5163E7
:1027C000704700000010024001460120B0EB611F7D
:1027D00002D10B48006808E00220B0EB611F02D173
:1027E0000748406B01E00648806B01F01F0301229F
:1027F0009A40104008B1012070470020FCE700001B
:102800000010024000B500F00DF804494968C1F31A
:102810000311034A515CC84000BD00000010024093
:10282000AC01002010B5194C646804F00C04042CB1
:1028300006D0082C06D00C2C23D149F6404022E0CB
:10284000134820E0114CA46C04F0010444B10F4C77
:10285000A46C04F002040CB10E4C02E00C4C00E03D
:102860000B4C2346094CA46CC4F30644611C074C72
:10287000A46CC4F30224621C03FB01F4B4FBF2F069
:1028800001E0034800BF00BF10BD0000001002407F
:1028900000127A0000093D000F49496B21F0050143
:1028A0000D4A516301280CD0042811D11146496BFF
:1028B00041F0040151631146496B41F0010151633C
:1028C00007E00549496B41F00101034A516300E00B
:1028D00000BF00BF70470000001002400449496B70
:1028E00021F4004141EAC031014A516370470000C0
:1028F000001002400349496B21F440710143014A31
:102900005163704700100240024909688143014A3F
:1029100011607047042800400348006840F0100030
:10292000014908607047000004280040064800681C
:1029300020F010000449086000BF0348006800F060
:1029400020000028F9D070470428004070B5002608
:102950000024002500F07AF806463848B6FBF0F46B
:1029600037480088A0423CD035490C8040F2B2750F
:1029700010E02846FFF720FE40B1B4F5B77F02D340
:10298000A4F5B77404E0681C85B206E0A4F26D14E7
:10299000681C85B2B4F5B67FEBD800BF29488580A6
:1029A000002516E027498888FFF706FE30B1012D83
:1029B00004D11D2C01D31D3C09E00CE02248405DF0
:1029C000A04203D82048405D241A00E003E0681CC0
:1029D00085B21C2CE6D200BF681C1A498871601CA5
:1029E000C8711648B6FBF0F100FB11644FF461604A
:1029F000B4FBF0F0134908704FF46160B4FBF0F1E0
:102A000000FB11403C21B0FBF1F00E4948704FF43F
:102A10006160B4FBF0F100FB11403C21B0FBF1F22E
:102A200001FB1200074988700B46DA79997998887A
:102A300000F01EF803490872002070BD80510100AB
:102A40001C0000201C320020E83101080348006807
:102A500001040248001D0068084370471828004020
:102A60000146024800680840704700000428004002
:102A7000F0B503460C461546642093FBF0F0C6B251
:102A8000642093FBF0F700FB1730C1B2132E02DD78
:102A900001F16400C1B20846CF1701EB977701EB53
:102AA000A707BAB2072092FBF0F700FB172082B20B
:102AB0005719601EDFF82CC01CF80000384482B2A1
:102AC000CF1701EB9777BF10A1EB87071FB9032C36
:102AD00001DA501E82B2072092FBF0F700FB1720AC
:102AE000C0B2F0BDDC31010810B50120FFF7B8FF1E
:102AF00008B1FFF72BFF0220FFF7B2FF10B1022051
:102B0000FFF702FF0520FFF7FFFE00F019F910BDE7
:102B1000012905D1064A12680243054B1A6006E0F6
:102B2000034A1268C3439BB21A40014B1A607047B4
:102B3000002800401CB5002401210807FFF718FEFB
:102B40000121C806FFF714FE0120FFF7CFFD10207A
:102B5000FDF70EFE45F25001884243D0FDF7FFFD20
:102B60000120FFF799FE4FF4FA60FEF7B3FC08E08E
:102B7000601CC4B2FA2C01DB01201CBD0A20FEF748
:102B8000A9FC4120FFF720FE0028F1D04FF480700F
:102B9000FFF7B0FE0120FFF7A1FE00F0D1F800F032
:102BA000D9F801210846FFF7B3FF00F0C9F847F64E
:102BB000FF7000F0B7F800F0C3F800F0CBF8372052
:102BC0001E2115230722CDE900100C2140F2E470EC
:102BD00000F030F845F250011020FDF7D1FD00F073
:102BE000AFF807E000F0B6F801210846FFF790FFC4
:102BF00000F0A6F800F00CF80020BEE710B5FFF7D3
:102C000099FF012803D14FF47A70FEF763FC10BDE1
:102C100008B503208DF8000000208DF80100022087
:102C20008DF8020001208DF803006846FFF71EFDB5
:102C300008BD00002DE9F05F06460F469046994614
:102C4000DDE90AAB002440F2B270864203DB40F6B5
:102C50003300864202DD0120BDE8F09F40F2B275EC
:102C60000AE02846FFF7A8FC10B12348044401E01D
:102C700022480444681C85B2B542F2DB781EC7B214
:102C8000002510E01E48405D40F2A321484304EBBC
:102C9000C0143046FFF790FC18B1012D01D119483E
:102CA0000444681C85B2BD42ECDBA8F1010040F28F
:102CB000A321484304EBC014C9EB4910C0EB092021
:102CC00004EB0014CAEB0A1004EB80045C440121FD
:102CD0000807FFF74DFD0121C806FFF749FD012058
:102CE000FFF704FD204600F00FF800F029F8FFF789
:102CF0002DFE0020B0E700000085E2018033E101F5
:102D0000E83101088051010000B50246FFF704FEDA
:102D1000100C03490860081D0260FFF707FE00BDA4
:102D20001828004000B50246FFF7F6FD100C0349D5
:102D30000860081D0260FFF7F9FD00BD082800408B
:102D400000BF0348006800F020000028F9D0704759
:102D5000042800400648006820F008000449086084
:102D600000BF0348006800F008000028F9D0704751
:102D70000428004070B50026294E4FF48062314689
:102D80002848FFF76DF9002446E0002540E0A9003F
:102D900001EBC400234931F8100004EB840101EB7E
:102DA000C401214A02EB810121F83500A800401C32
:102DB00000EBC4001B4931F8100004EB840101EB67
:102DC000C40102EB810101EBC5014880A800801C11
:102DD00000EBC400134931F8100004EB840101EB4F
:102DE000C40102EB810101EBC5018880A800C01C71
:102DF00000EBC4000B4931F8101004EB840000EB29
:102E0000C40002EB800000EBC500C180681C85B2E5
:102E1000022DBCDB601C84B2402CB6DB70BD000010
:102E2000000004089E320020906F002070B500263C
:102E3000314E4FF4806231463048FFF711F90024DB
:102E400007E02E4830F814002C4921F81400601CCB
:102E500084B2B4F5007FF4DB00244AE0002544E0AE
:102E6000A90001EBC400254931F8101004EB8400DF
:102E700000EBC400224A02EB8000103020F835102D
:102E8000A800401C00EBC4001C4931F8101004EBF2
:102E9000840000EBC40002EB8000103000EBC500A2
:102EA0004180A800801C00EBC400144931F81010C8
:102EB00004EB840000EBC40002EB8000103000EB58
:102EC000C5008180A800C01C00EBC4000B4931F88C
:102ED000101004EB840000EBC40002EB8000103003
:102EE00000EBC500C180681C85B2022DB8DB601CF8
:102EF00084B2402CB2DB70BD000804089E32002072
:102F0000906F00202DE9F04100270026324E4FF44B
:102F1000806231463148FFF7A3F8002407E02F48CC
:102F200030F814002D4921F81400601C84B2B4F567
:102F3000007FF4DB00244AE0002544E0A90001EB17
:102F4000C400264931F8101004EB840000EBC400E3
:102F5000234A02EB8000203020F83510A800401CE6
:102F600000EBC4001D4931F8101004EB840000EBA5
:102F7000C40002EB8000203000EBC5004180A800B7
:102F8000801C00EBC400154931F8101004EB8400DC
:102F900000EBC40002EB8000203000EBC500818014
:102FA000A800C01C00EBC4000C4931F8101004EB61
:102FB000840000EBC40002EB8000203000EBC50071
:102FC000C180681C85B2022DB8DB601C84B2402C25
:102FD000B2DBBDE8F0810000001004089E32002042
:102FE000906F002070B504464FF400511048FFF771
:102FF00010FA4FF4C87600BF301EA6F101018EB260
:10300000FAD16006050E01212846FDF711FC0021CA
:103010000846FDF70DFC00210846FDF709FC0546B2
:103020004FF400510248FFF7F6F9284670BD000042
:103030000010044008B501211820FFF779FB0C228D
:1030400000213548FFF7C9F90C2201213248FFF76A
:10305000C4F90C2204213048FFF7BFF90C220521E6
:103060002D48FFF7BAF90C2207212B48FFF7B5F9D5
:103070000C220B212848FFF7B0F90C2211462648F4
:10308000FFF7ABF90C220D212348FFF7A6F90C221C
:103090000E212148FFF7A1F90C220F211E48FFF74E
:1030A0009CF90C2203211D48FFF797F90C220421FB
:1030B0001A48FFF792F90C2207211848FFF78DF9FB
:1030C0000C2208211548FFF788F90C220921134822
:1030D000FFF783F90C220A211048FFF77EF94FF61B
:1030E000B300ADF8000002208DF8020018208DF822
:1030F000030069460848FFF71BF94FF4F360ADF889
:10310000000002208DF8020018208DF803006946A7
:103110000248FFF70DF908BD000C04400010044000
:103120002DE9F04707460C4626464FF009094D4663
:103130002D023D43F0B20121FEF792F90520FEF782
:10314000C9F9F0B20021FEF78BF901211A48FFF707
:1031500060F94FF000081EE005F4006020B1042182
:103160001648FFF758F903E004211448FFF751F916
:1031700001211148FFF74DF90220FEF7ABF90121BB
:103180000D48FFF748F90220FEF7A4F96D0008F199
:1031900001001FFA80F8B8F10C0FDDDBF0B201215D
:1031A000FEF75EF90220FEF795F9F0B20021FEF776
:1031B00057F9BDE8F0870000001004400008044003
:1031C0007FB506460C462046E11704EB5171C1F36A
:1031D000CF0102912046E11704EB5171C910A4EB15
:1031E000C10189B20191BDF8040008281DD2DFE8B1
:1031F00000F004070A0D101316190820009017E0BC
:103200000420009014E00C20009011E002200090B7
:103210000EE00A2000900BE00620009008E00E204F
:10322000009005E00120009002E00020009000BF27
:1032300000BFBDF800000390BDF80C004FF6FF7111
:1032400001EA00200390BDF80C0030430390BDF864
:103250000810C8B20121FEF703F90220FEF73AF97F
:10326000BDF80810C8B20021FEF7FAF801211E4887
:10327000FFF7CFF8002524E0BDF80C0000F4006053
:1032800020B104211948FFF7C6F803E004211748CC
:10329000FFF7BFF801211448FFF7BBF80220FEF743
:1032A00019F901211048FFF7B6F80220FEF712F9CC
:1032B000BDF80C004FF6FF7101EA40000390681C56
:1032C00085B20C2DD8DBBDF80810C8B20121FEF77D
:1032D000C7F80220FEF7FEF8BDF80810C8B20021BA
:1032E000FEF7BEF87FBD0000001004400008044057
:1032F00010B50A48006820F0180008490860084620
:10330000006840F00100086000BF0448406800F019
:1033100003000228F9D100F003F810BD006001405D
:1033200000B587B00020039002907C48006840F010
:1033300001007A49086000BF7848006800F0020088
:103340000028F9D07548006840F48030734908605F
:103350000520FEF7CEF8724800687249884210D9FD
:103360006E48006B40F080506C4908636E480068FE
:1033700020F440406C4908600846006840F4404032
:10338000086010E06548006800F400300290029880
:1033900000B109E00398401C03900398B0F5485F22
:1033A00001D307B000BDEDE700BF5C48006800F442
:1033B000003010B900200290F3E7012002900520B0
:1033C000FEF797F85948564908605948006840F098
:1033D0001000574908600846006820F007000860A0
:1033E0004F480068401E5349B0FBF1F0069050482A
:1033F0000068069901F0070108434D4908604748F5
:10340000406843F6F0718843444948600846406884
:1034100040F09000486008464068486040480068B6
:103420004549884206D93D48406840F4A0603B4980
:1034300048600AE03A4800684049884205D9374860
:10344000406840F48060354948606B4601AA3448C2
:1034500001683B48FDF750F93048806C20F00300CC
:103460002E4988640846806C40F0010088649DF80D
:10347000000000F0070004909DF8040000F07F00B9
:1034800005900846006B40F0805008630846806C49
:103490002C4908402149886405980004049940EAB1
:1034A00001201E49896C08431C498864084600684D
:1034B00040F08070086000E000BF1848006800F02D
:1034C00000700028F8D01548406820F00300134928
:1034D00048600846406840F00200486000E000BFD5
:1034E0000E48406800F00C000828F8D10120FEF7D3
:1034F00000F80A48406820F01000084948600120A0
:10350000FDF7F7FF0548406820F080000349486058
:103510000120FDF7EEFF00BF43E70000001002406E
:103520000000002000D8B80500700040000E2707FA
:103530000020024000366E0100A24A04005125021C
:1035400000127A00FFF880FF042808D14FF0E02134
:10355000096941F004014FF0E022116107E04FF0EA
:10356000E021096921F004014FF0E0221161704768
:1035700010B500BF5021EFF3118081F31188BFF324
:103580004F8FBFF36F8F00BF04460FF08DFC0128F3
:1035900001D00FF021FA00BF84F3118800BF10BDE5
:1035A00010B51448006840F0010012490860084650
:1035B0004068114908400F494860084600680F49B3
:1035C00008400C4908600846006820F48020086024
:1035D0000846406820F443004860084600680849EF
:1035E0000840044908604FF41F008860FFF780FE20
:1035F00010BD0000001002400CC0FFF8FFFFF6FEF7
:10360000FFFF8F003EB500241E48047800210846C5
:103610000EF0E6F821064FF4F640204300F47F4018
:1036200041EA00211848204300F47F0041EA1021BC
:103630001548204341EA1060144908606FF07F404C
:1036400013490860134814490860144814490022BB
:10365000114BCDE9002102900D4A0C49114806F0AA
:103660009BFC104806F09EFE0E4890F82900C0F31F
:10367000800018B10B4806F0CFFE02E0094806F0C2
:1036800099FE3EBD00000860007BA8C060000020DD
:1036900064000020C0A87B01680000200519010813
:1036A000BD4E0008B07C002010B50121044800F098
:1036B0000DF818B10121024800F004F810BD000017
:1036C000002C014002698A4302617047024610697A
:1036D000084020B1D068084008B1012070470020A0
:1036E000FCE700002DE9F04FADF2044D05460C4615
:1036F0004FF00008C246C34600270020CDF8000462
:103700004FF480616846FCF7DCFD20784D4909786C
:1037100088420ED160784B494978884209D1A07817
:1037200048498978884204D1E0784649C978884276
:1037300006D04FF0000A50460DF2044DBDE8F08F60
:10374000A5F10800205C0106E81F205C01EB0041A8
:10375000A81F205C01EB0021681F205C01EB000B1F
:10376000A07E0006E17E00EB0140217F00EB0120FE
:10377000617F0844A0F12807E07FA17F00EB0120D2
:1037800080B2CDF800044FF00009C84604E014F8F8
:103790000800814408F10108A5F108004045F6D869
:1037A000D94503D04FF0000A5046C5E7DDF80004C4
:1037B00078B14FF4806204F120016846FCF75AFDAD
:1037C000214802784FF48061684601F037FD0646D3
:1037D00019E03A4604F120016846FCF74BFD07F07A
:1037E000010020B1FF2238467F1C0DF8002016484A
:1037F00002783946684601F021FD0646042E02D1C2
:1038000001201249087010480078401C0E490870C9
:10381000042E02D14FF0010A01E04FF0000ABAF184
:10382000010F06D188200A49887733210848C177DB
:1038300005E044200649887711210548C1775046A4
:103840007AE70000E6010020EB010020EA010020F9
:10385000BC010020062813D2DFE800F0120306099D
:103860000C0F094A11700DE0084A11700AE0084A6D
:10387000117007E0074A117004E0074A117001E077
:10388000002100BF00BF704700000160000002601F
:103890000000036000000460000005602DE9F041B5
:1038A00004460D464FF400510E48FEF7B2FD4FF4AA
:1038B000C87700BF381EA7F101018FB2FAD10120ED
:1038C00000EB4400C6B201213046FCF7B1FF0121F4
:1038D0002846FCF7ADFF4FF400510248FEF79BFD70
:1038E000BDE8F081001004400FB4054B10B503A9EA
:1038F000044A029800F01CF810BC5DF814FB0000AC
:10390000A5500008F001002000487047F801002091
:1039100002E008C8121F08C1002AFAD17047704798
:10392000002001E001C1121F002AFBD170470000F6
:103930002DE9FF4F8BB088460546002606E0252876
:103940000BD0DDE90D1290476D1C761C28780028FD
:10395000F5D10FB03046BDE8F08F0024A146A24655
:103960000122AE4900E0044315F8013F203B02FA72
:1039700003F00842F7D128782A2810D06FF02F02E0
:103980002878A0F13001092915D809EB890102EB4B
:10399000410144F0020400EB01096D1CF0E758F806
:1039A000041B5FEA010903D544F40054C9F100097E
:1039B00044F002046D1C28782E2817D115F8010F49
:1039C00044F004042A280ED06FF02F022878A0F1CA
:1039D000300109290AD80AEB8A0102EB410100EB08
:1039E000010A6D1CF2E758F804AB6D1C28786C28AE
:1039F0000FD006DC4C2817D068280DD06A2814D1C7
:103A000004E0742810D07A280FD10DE044F400149B
:103A10000AE044F4801401E044F4401469788142DF
:103A200002D104F580146D1C6D1C2878692865D0BE
:103A300006DC00288DD0632827D0642806D15DE0FD
:103A40006E2808D073282AD0752877D0DDE90D12AA
:103A50009047761CE0E0C4F30250022809D0032806
:103A60000DD0D8F8001004280DD00E6008F104081D
:103A7000D2E0D8F80010F217C1E90062F6E7D8F8F2
:103A800000100E80F2E70E70F0E718F8041B8DF8B6
:103A9000001000208DF80100EB46012003E058F8EB
:103AA00004BB4FF0FF3061074FF0000701D40AE07C
:103AB0007F1C57450DDA8742FADB1BF807100029F7
:103AC000F6D106E07F1C8742FCDB1BF807100029BB
:103AD000F8D1DDE90D23A9EB07008146214600F06E
:103AE000B1F83044C61904E0DDE90D121BF8010BF2
:103AF00090477F1EF8D22146484688E058F8040BCC
:103B0000C4F302514FF00A0B032900D100B204297B
:103B100000D140B2002802DA40422D2102E0210506
:103B200005D52B218DF82410012104E006E0E107E2
:103B300010D02021F6E708AF089113E058F8040BE5
:103B4000C4F302514FF00A0B032900D180B20429BB
:103B500000D1C0B20021EEE75946FCF7D7FB303167
:103B600007F8011D0028F7D1ADEB070000F1200B8D
:103B7000600702D524F4803401E04FF0010ADA45F1
:103B800002DDAAEB0B0000E00020824600EB0B01F7
:103B900008980144A9EB01000A90E00306D4DDE98E
:103BA0000D2321460A9800F04DF806444FF0000915
:103BB00008E009A911F80900DDE90D12904709F1A3
:103BC0000109761C08998945F3DBE0030CD5DDE992
:103BD0000D2321460A9800F035F8064404E0DDE99B
:103BE0000D1230209047761CBAF10001AAF1010AAB
:103BF000F5DC05E0DDE90D1217F8010B9047761CA6
:103C0000BBF10001ABF1010BF4DC0A982146DDE9C0
:103C10000D2300F005F806446D1C97E60928010005
:103C20002DE9F041044600251E461746880404D4B9
:103C300005E039462020B0476D1C641EF9D52846A2
:103C4000BDE8F0812DE9F041044600251E4690466E
:103C5000C80301D5302700E02027880404D505E0FB
:103C600041463846B0476D1C641EF9D52846BDE86C
:103C7000F08100002DE9F04706460F469046344695
:103C80001CB96FF00500BDE8F08704F1140008F0DE
:103C900006F920B900BF00BF6FF00500F3E7A7B930
:103CA0006FF00C0003F0B0FF8146494604F11400A8
:103CB00008F0E6F830B9606A20B1002211462046CB
:103CC000636A98476FF00500DDE700BFB8F1000FA9
:103CD00004D000BF2DA0FFF707FE00BF00BF00BF4C
:103CE00000BF2078616A05F089FB0546A5B96FF031
:103CF0000C0003F089FF8146494604F1140008F0E6
:103D0000BFF830B9606A20B1002211462046636ACC
:103D100098474FF0FF30B6E76F60284607F0CCFFBA
:103D2000294604F1140008F0ABF830B3D5F804903C
:103D30000021484608F072FB002148460BF08EFD3A
:103D4000002148460CF0F0F80022114648460AF0DF
:103D5000CFFD0021484608F041FF0020686005F1D2
:103D6000100008F071F805F1100008F086F82846F8
:103D700005F08CFC4FF0FF3085E7606A20B100222F
:103D800011462046636A984700207CE76578706595
:103D90006374206E6577706362203D3D204E554C04
:103DA0004C206F7220657272203D3D204552525F5B
:103DB0004F4B00002DE9F04105460E46002440E03F
:103DC00007F0D3FF0746214800EB041000680028E5
:103DD00033D11E4800EB04100560384607F0EEFFB3
:103DE00000201A4901EB0411486000BF174800EB9E
:103DF0000410807B20B100BF15A0FFF775FD00BF48
:103E000000BF0020114901EB04110881287800F05F
:103E1000F000102804D10EB1012002E0002000E0E3
:103E200001200A4901EB041148810020074901EBF8
:103E3000041188812046BDE8F081384607F0BEFFB6
:103E4000641C042CBCDB4FF0FF30F4E7ACD2012043
:103E5000736F636B6574735B695D2E73656C65630B
:103E6000745F77616974696E67203D3D20300000A2
:103E7000002106E0002200E0521CB2F5257FFBD3B2
:103E8000491C8142F6D370472DE9F04104460D46A6
:103E900000BF05F0030020B100BF09A0FFF724FD1B
:103EA00000BF00BF2E4607F060FF0746E0680068CD
:103EB0003060E0680660384607F080FFBDE8F081BA
:103EC0006D656D705F667265653A206D656D207019
:103ED000726F7065726C7920616C69676E656400E1
:103EE00070B5054607F041FF0646E86804688CB1E6
:103EF0002068E968086000BF04F0030020B100BF3B
:103F000008A0FFF7F1FC00BF00BF304607F056FFE6
:103F1000204670BD304607F051FF00BF00BF0020B3
:103F2000F7E700006D656D705F6D616C6C6F633AF3
:103F3000206D656D702070726F7065726C79206194
:103F40006C69676E656400002DE9F05F07460E46F8
:103F50003C4600BF24B900BF43A0FFF7C5FC00BF2B
:103F600000BF07F002FF8346002060602672207FBA
:103F700040F001002077657800206070584607F017
:103F80001DFF606A20B1002204212046636A984721
:103F9000606A20B1002211462046636A9847606A31
:103FA00020B1002202212046636A9847304603F080
:103FB0002BFE824604F1100007F071FF20B151463C
:103FC00004F1100007F05CFF04F1140007F067FF34
:103FD00020B1514604F1140007F052FF012D03D027
:103FE000042D01D0032D34D1207FC0F3800900BF00
:103FF00000BF207F00F0FB00207700BF00BFB9F1B9
:10400000000F25D100BF206A20B900BF1AA0FFF71A
:104010006BFC00BF00BF042D03D10020216A087192
:1040200001E0206A0671206A006800F10C0800BFF8
:10403000404607F096FF20B900BF16A0FFF754FCDA
:1040400000BF00BF00202062404607F081FF00BF94
:1040500008E000BF206A20B100BF15A0FFF744FCB4
:1040600000BF00BFBDE8F09F636F6E6E20213D2052
:104070004E554C4C00000000636F6E6E2D3E637514
:104080007272656E745F6D736720213D204E554CD2
:104090004C000000696E61766C6964206F705F632C
:1040A0006F6D706C657465645F73656D0000000012
:1040B000636F6E6E2D3E63757272656E745F6D73A5
:1040C00067203D3D204E554C4C0000000146002924
:1040D00002DC4842112801DB0520704702484A42B1
:1040E00050F82200F9E700007C33010870B505465E
:1040F000002411E004EB4400094901EBC000067DF7
:104100004EB104EB440001EBC0008068A84202D12C
:10411000204600F04FF9641C0A2CEBDB70BD000058
:10412000886A01202DE9FF5F0646894617464FF051
:104130000A0AD346D04600240A20039000200290A9
:104140000190009000BF73E004EB4400724901EB62
:10415000C000057DB8F10A0F04D11DB900BF00BF32
:10416000A04663E0002D61D000BF012D06D0022DD6
:1041700004DA00BF69A0FFF7B7FB00BF00BFBEB104
:1041800004EB4401644A02EBC1013068496888428B
:104190000ED13FB104EB4400114601EBC000806832
:1041A000B84205D100BF00BF204604B0BDE8F09F73
:1041B000012D28D104EB4400574951F8300080B15B
:1041C00004EB440001EBC000418A029881422DDBE0
:1041D000039404EB4400504901EBC000408A029074
:1041E00024E004EB44004C4901EBC000418A0198F3
:1041F00081421BDBA24604EB4400474901EBC000AF
:10420000408A019012E0022D10DB04EB4400424989
:1042100001EBC000418A0098814207DBA34604EB12
:1042200044003D4901EBC000408A0090601C04B28C
:104230000A2C89DB09F0020028B9B8F10A0F07D16E
:1042400009F0010020B900BF00BF4FF0FF30ACE71C
:10425000B8F10A0F02DA444600BF2FE0BBF10A0FA3
:104260000FDA5C4600BF00BF00BF04EB44002A49E0
:1042700051F8300020B100BF38A0FFF735FB00BF78
:1042800010E0BAF10A0F02DA544600BF0AE00398C0
:104290000A2802DA039C00BF04E000BF00BF4FF011
:1042A000FF3082E700BF0A2C04DB00BF31A0FFF71C
:1042B0001BFB00BF00BF204600F07CF800BF0A2CAB
:1042C00004DB00BF2BA0FFF70FFB00BF00BF00BF48
:1042D00004EB4400104901EBC000007D20B100BF99
:1042E00029A0FFF701FB00BF00BF36B104EB44017A
:1042F000094A02EBC10130684860002004EB440128
:10430000054A02EBC101488204EB4400114601EB6F
:10431000C0008760204648E7886A01207374617492
:1043200065203D3D204554484152505F535441540F
:10433000455F50454E44494E47207C7C2073746154
:104340007465203E3D204554484152505F535441CE
:1043500054455F535441424C450000006172705F08
:104360007461626C655B695D2E71203D3D204E5528
:104370004C4C000069203C204152505F5441424C5B
:10438000455F53495A4500006172705F7461626C09
:10439000655B695D2E7374617465203D3D204554F5
:1043A000484152505F53544154455F454D50545914
:1043B0000000000010B5044604EB4400194951F810
:1043C000300070B100BF00BF04EB4401154A52F841
:1043D000310006F0FDFB002004EB4401114A42F8D5
:1043E0003100002004EB44010E4A02EBC1010875C4
:1043F00004EB440102EBC101488204EB440102EBEF
:10440000C101886004EB440102EBC101486004EB88
:104410004400114601EBC00003490A68C260898864
:10442000018210BD886A012072330108F0B587B09F
:1044300007460D4600BF35B900BF33A0FFF754FA59
:1044400000BF07B0F0BD00BF7C682088B0F5807F5A
:1044500008D12079062805D16079042802D1608826
:10446000082805D000BF00BF384606F0B1FBE8E7DA
:10447000D4F80E000690A0690590686808B9002677
:1044800007E005986968884201D1012000E000201A
:1044900006460EB1012000E00220034604F10802A6
:1044A00006A9284600F0CCFBE088B0F5807F03D059
:1044B000B0F5007F1ED11AE000BF00BF86B1022216
:1044C00006AB04F10800291DCDE90232CDE9001048
:1044D00005F1220302461E31284600F08FFA05E05E
:1044E000686808B900BF01E000BF00BF05E000BF79
:1044F00000BF02E000BF00BF00BF00BF384606F0AB
:1045000067FB00BF9DE700006E6574696620213D72
:10451000204E554C4C0000002DE9FE4304460F464A
:104520001546A94600BF24B900BF57A0FFF7DCF924
:1045300000BF00BF00BF27B900BF57A0FFF7D4F9E5
:1045400000BF00BF00BF25B900BF56A0FFF7CCF9E0
:1045500000BF00BF2146286801F04EF910B1DFF816
:10456000548186E0287800F0F000E02816D1012080
:104570008DF8040000208DF805005E208DF80600FF
:10458000687800F07F008DF80700A8788DF80800A3
:10459000E8788DF809000DF1040869E02868A16841
:1045A0000840D4E90112114088420ED0288880B218
:1045B0004FF6A961884208D0E06810B104F10C09F7
:1045C00003E06FF00300BDE8FE833B48007800EB9A
:1045D00040003A4901EBC000007D02281BDB364851
:1045E000007800EB400001EBC0008068A04212D1CF
:1045F0003149097801EB4101304A02EBC101D9F898
:1046000000004968884206D12B4802783946204686
:1046100000F056F8D7E7002622E006EB46002749CF
:1046200001EBC000007D022818DB06EB460001EB21
:10463000C0008068A04211D106EB46011F4A02EB80
:10464000C101D9F800004968884207D11A480670AC
:1046500032463946204600F033F8B4E7701CC6B243
:104660000A2EDADB3A464946204600F0A9F8AAE7C6
:1046700000BF4FF40060434604F122023946009027
:10468000204600F0C9FB9EE76E6574696620213DF7
:10469000204E554C4C0000007120213D204E554CC1
:1046A0004C00000069706164647220213D204E5509
:1046B0004C4C00006C33010824010020886A012062
:1046C000F8B505460E46144600BF04EB44002F49DA
:1046D00001EBC000007D022804DA00BF2CA0FFF728
:1046E00003F900BF00BF04EB4400284901EBC00000
:1046F000007D022839D104EB440001EBC000408A60
:10470000B0F58E7F11DD04EB44000A4602EBC000D9
:10471000011D284600F0FEF938BB032004EB4401DC
:104720001A4A02EBC10108751FE004EB4400174967
:1047300001EBC000408AB0F5877F16DB04EB440034
:104740000B4603EBC00000F10C0204EB440003EB4A
:10475000C000011D284600F0EBF930B9032004EB3E
:1047600044010A4A02EBC10108754FF40060009051
:1047700004EB4400054901EBC00000F10C0305F116
:1047800022023146284600F047FBF8BD886A012026
:104790006172705F7461626C655B6172705F6964A5
:1047A000785D2E7374617465203E3D204554484108
:1047B00052505F53544154455F535441424C45005D
:1047C0002DE9FE4F81460F46164609F1220A4FF0A9
:1047D000FF300290002001904946386801F00CF843
:1047E00038B9387800F0F000E02802D00FB138680E
:1047F00028B900BF00BF6FF00F00BDE8FE8F4A462A
:1048000001213846FFF78EFC8046B8F1000F07DA29
:1048100000BF00BF0EB100BF00BF4FFA88F0ECE749
:1048200000BFB8F17F0F04D300BF5AA0FFF75CF8B8
:1048300000BF00BF08F0FF0404EB4400594901EB3E
:10484000C000007D70B90120019004EB4401554A7D
:1048500002EBC101087504EB4400114601EBC000F6
:10486000C0F8089000BF04EB44004E4901EBC000C3
:10487000007D01280BD004EB440001EBC000007D5B
:10488000022804DA00BF48A0FFF72EF800BF00BFDF
:10489000019800B93EB93946484600F03BF902900C
:1048A0000EB90298A9E700BF26B900BF48A0FFF7DC
:1048B0001BF800BF00BF04EB44003A4901EBC00005
:1048C000007D022811DB454804704FF40060009021
:1048D00004EB440001EBC00000F10C0352463146EA
:1048E000484600F099FA029051E004EB44002D494B
:1048F00001EBC000007D012849D14FF0000B354687
:1049000014E000BF68892989884206D1286820B14F
:1049100000BF33A0FEF7E8FF00BF00BF287B00F018
:10492000400010B14FF0010B02E02D68002DE8D1DE
:1049300000BFBBF1000F07D032464FF420710E20AC
:1049400005F0E0FF054603E03546284606F09EFAEE
:10495000BDB104EB4400134951F8300040B100BF31
:1049600000BF04EB44010F4A52F8310006F030F961
:1049700004EB44000B4941F830500020029000BF86
:1049800004E000BF00BF4FF0FF30029000BF02986C
:1049900033E7000074797065206F766572666C6F1E
:1049A00077000000886A01206172705F7461626C38
:1049B000655B695D2E7374617465203D3D205045D3
:1049C0004E44494E47206F7220535441424C45009B
:1049D0007120213D204E554C4C0000002401002048
:1049E0006E6F207061636B6574207175657565739A
:1049F00020616C6C6F776564210000002DE9FC5F1D
:104A000006460F4690469946DDE90CAB0020019022
:104A100000BF26B900BF2DA0FEF766FF00BF00BF94
:104A20004FF420721C210E2005F074FD05462DB9AF
:104A300000BF00BF4FF0FF30BDE8FC9F00BF68899A
:104A40001C2804DA00BF25A0FEF74EFF00BF00BF00
:104A50006C6800BF00BF0F9802F01FFAE08000BF33
:104A600096F82800062804D000BF2948FEF73CFF2E
:104A700000BF00BFD9F80000A060B9F80400A08111
:104A8000DBF80000C4F81200BBF80400E082DAF89A
:104A90000000C4F80E000E980068A0614FF480700A
:104AA000208008206080062020710420607140F67C
:104AB000060043463A4629460090304600F0ACF9DD
:104AC000284606F085F800250198B5E76E657469FB
:104AD0006620213D204E554C4C0000006368656304
:104AE0006B207468617420666972737420706275DB
:104AF000662063616E20686F6C64207374727563E6
:104B000074206574686172705F68647200000000F0
:104B1000EC35010870B504460D4600BF00BF034ADE
:104B20002946204600F004F870BD00006C330108EF
:104B30007FB504460D4616460121074A201D04F1A3
:104B400022038DE825000391324619462046FFF7DF
:104B500055FF04B070BD00007233010870B500BF8E
:104B600000BF002466E004EB4400344901EBC000C0
:104B7000057D002D5DD004EB440001EBC000408AB0
:104B8000401C04EB44012D4A02EBC101488204EBB6
:104B90004400114601EBC000408AB0F5967F0DDA63
:104BA00004EB440001EBC000007D01280CD104EBB4
:104BB000440001EBC000408A052805DB00BF00BFB0
:104BC0002046FFF7F7FB34E004EB44001B4901EB00
:104BD000C000007D032807D1042004EB4401174ADC
:104BE00002EBC101087524E004EB4400134901EB1A
:104BF000C000007D042807D1022004EB44010F4AC5
:104C000002EBC101087514E004EB44000B4901EB11
:104C1000C000007D01280CD104EB44020B4603EBDD
:104C2000C202111D04EB440203EBC2029068FFF7BD
:104C300071FF641C0A2C96DB70BD0000886A01209D
:104C40002DE9F84305460E461746984600BF95F8ED
:104C50002800062804D000BF2FA0FEF745FE00BFA5
:104C600000BF00BF00BF5EB1306848B12946306860
:104C700000F0C2FD20B9307800F0F000E02805D146
:104C800000BF00BF6FF00F00BDE8F8832A46414621
:104C90003046FFF747FA0446002C01DA60B2F3E72A
:104CA000022004EB4401254A02EBC101087504EB24
:104CB0004400114601EBC000856000BF00BF04EB5B
:104CC000440001EBC0003968C160B988018200204E
:104CD00004EB440102EBC101488204EB440011469D
:104CE00051F83000B0B104EB440051F8309000208E
:104CF00004EB440142F831004FF400603B4605F1FB
:104D0000220249460090284600F086F8484605F001
:104D10005FFF00BF0020B7E76E657469662D3E68CF
:104D200077616464725F6C656E203D3D2045544838
:104D30005F4857414444525F4C454E00886A012009
:104D40002DE9F04104460E464FF00E0860890E280A
:104D500000DC59E0E07B18B996F82C00401CE073A9
:104D6000656800BF00BFAF89287800F00100B0B1CE
:104D70002878012809D1687888B9A8785E280ED1EA
:104D8000607B40F01000607309E00622214928464C
:104D9000FBF7A2FA18B9607B40F008006073082F97
:104DA00003D0B7F5C16F2AD114E096F8290000F0BE
:104DB000080000B928E04146204606F08BF820B1F3
:104DC00000BF00BF00BF00BF1EE03146204600F01C
:104DD00065FE15E096F8290000F0080000B913E020
:104DE0004146204606F076F820B100BF00BF00BF64
:104DF00000BF09E031462046FFF718FB00E003E062
:104E000000BF0020BDE8F081204605F0E1FE002053
:104E1000F8E700006C3301082DE9F04705460E461F
:104E200017469846DDF82090484602F036F882464C
:104E30000E21304605F01CFB00B120E07468A4F898
:104E40000CA0D8F800002060B8F80400A0803868F2
:104E5000C4F80600B888608100BF95F828000628CD
:104E600004D000BF08A0FEF73FFD00BF00BF00BF99
:104E700000BF31462846AA699047BDE8F08700BFC9
:104E800000BF6FF00100F8E76E657469662D3E683B
:104E900077616464725F6C656E206D7573742062F7
:104EA00065203620666F722065746865726E657461
:104EB0005F6F7574707574210000000070B5044652
:104EC00000BF24B900BF14A0FEF70EFD00BF00BF55
:104ED000042003F01FFF054615B94FF0FF3070BDE9
:104EE00000BF24B900BF0CA0FEF7FEFC00BF00BF4E
:104EF000E5616D2084F82A006D212B2001550A48B8
:104F000060610A48A061204601F05EFC04F12200C5
:104F100028600020E3E700006E6574696620213D8B
:104F2000204E554C4C00000019450008B56900089A
:104F3000054600262C462AE000235A1E194614482E
:104F400000680DF09DFD012821D10DF069FB00BF27
:104F5000204601F0A9FC06460DF074FBBEB10DF031
:104F60005FFB214630462269904730B100BF00BF49
:104F7000304605F02DFE002607E000231A461946AC
:104F8000034800680DF07CFDE2E70DF05BFBD3E722
:104F9000440000202DE9F84F05460E46DDB1AF690B
:104FA000002F12DA06F0E1FE8146A869002808DA2F
:104FB00016B9A869401EA861484606F0FFFEBDE884
:104FC000F88FAF69484606F0F9FE384600F0D8F889
:104FD00004460CB9F3E7F2E74FF0010806F0C5FE0E
:104FE0008146052E24D2DFE806F0030E151C2000B2
:104FF0002089401C00B22081B4F90800012801DD9D
:105000004FF000081CE02089401E00B220814FF0C4
:10501000000815E0608908B14FF0000801206081A8
:105020000EE00020608180460AE00120A08107E0B8
:1050300000BF00BF17A0FEF757FC00BF00BF00BFB6
:1050400000BFA07B00B3B8F1000F1DD0B4F9080079
:10505000002801DD012000E000208246608908B1BF
:10506000012000E000208346A08908B1012000E073
:1050700000200090484606F0A1FE5A4651463846A8
:10508000009B06F051FD02E0484606F097FE00BF87
:1050900095E70000756E6B6E6F776E206576656EB6
:1050A0007400000000BF054A126802F00102002AE5
:1050B000F9D0C2B2014B083B1A6070470838014072
:1050C00010B5002821D0114B0022001F196803E001
:1050D000814203D80A4649680029F9D152B11368C0
:1050E000841A9C4204D1006818441060104602E003
:1050F000506000E0186039B102680B1A934203D186
:105100000B681A4402604968416010BDF401002038
:105110002DE9FC4105460C4606F027FE07466B4686
:1051200001AA2146284600F01FF80646384606F038
:1051300045FE26B16A462046019900F002F8BDE816
:10514000FC8170B506460D461446206838B11EB184
:10515000206805F03DFD02E0206804F067F815B115
:10516000284604F01DFA70BD10B50446606818604A
:10517000002060602068106000202060012010BDC9
:1051800070B5044620460CF0AFFC054665B9002C0E
:1051900001DB042C01DB00BF00BF00BF0920034975
:1051A000086000BF002070BD2846FCE754000020C6
:1051B00010B50446206807490840B0F1005F08D1E7
:1051C0006068054908602068FBF73BF80248006802
:1051D000804710BD0000FE2FEC0100202DE9F84FA4
:1051E00007468846144600200090134800EB842BA5
:1051F0003E46FCF79BFF4FF0000915E070784FEA40
:10520000002A307850441FFA80FAB61C514658469E
:10521000FCF716FF0546042D00D007E00BF1020B4A
:1052200009F102001FFA80F9C145E7D300BFFCF77E
:10523000FDFE2846BDE8F88F003002082DE9F84F42
:1052400007468846144600200090134800EB842B44
:105250003E46FCF76BFF4FF0000915E070784FEA0F
:10526000002A307850441FFA80FAB61C514658463E
:10527000FCF7E6FE0546042D00D007E00BF1020B1B
:1052800009F102001FFA80F9C145E7D300BFFCF71E
:10529000CDFE2846BDE8F88F0000050870B505462C
:1052A0000C4622460321284600F026F970BD000076
:1052B0002DE9F04F85B004468A4675488068039012
:1052C000039800780007870E142F08DA00BF00BF8C
:1052D000394670A0FEF708FB00BF00BFCEE0608932
:1052E000042808D200BF00BF218977A0FEF7FCFA8E
:1052F00000BF00BFC2E06068057860684078049035
:1053000015B1082D7DD100E0B3E0DFF8849109F1FB
:1053100014095F48007D00F0F000E02800D1B1E002
:105320005B4A1168506900F067FA00B1AAE0208971
:10533000082800D2A2E0204600F0C7F928B1204694
:1053400005F046FC05B0BDE8F08F07F10E012046E0
:1053500005F08EF8A0B3208938441FFA80FB20891D
:10536000584500DD8EE04FF4207259460E2005F0BE
:10537000D1F88046B8F1000F00D183E0B8F80A10E8
:1053800007F10800814203D2404605F021FC79E094
:105390003A46D8F804000399FAF76CFF39464046BC
:1053A00005F098FD18B1404605F012FC6AE0214670
:1053B000404605F0CFFA20B1404605F009FC61E017
:1053C00004E0204605F004FC444606E007F10E0127
:1053D000204605F07FFD00B154E06668394620465E
:1053E00005F046F890BBD4F80480D9F80000C8F85E
:1053F0000C0027480069C8F8100000203070708841
:1054000000E024E04FF6F771884203DD7088093030
:10541000708002E0708808307080FF2088F80800F3
:105420000020A8F80A003946404600F044F9A8F8E0
:105430000A0001200021FF230A46CDE9010A00915C
:105440004946204600F03EFC834600BF11E0032D94
:105450000ED00B2D0CD00C2D0AD0042D08D0052D0C
:1054600006D00D2D04D00E2D02D0112D00D000BF7E
:1054700000BF00BF204605F0ABFB63E7204605F008
:10548000A7FB5FE7204605F0A3FB00BF5AE700003B
:10549000E07C002069636D705F696E7075743A20FE
:1054A00073686F727420495020686561646572206A
:1054B00028256420627974657329207265636569A3
:1054C0007665640A0000000069636D705F696E7044
:1054D00075743A2073686F72742049434D502028C8
:1054E0002568752062797465732920726563656922
:1054F0007665640A000000002DE9FF478046894672
:1055000092464FF420722421222005F003F806462B
:1055100046B900BF00BF3BA0FEF7E6F900BF00BFE1
:10552000BDE8FF8700BF7089242804D200BF45A0D2
:10553000FEF7DAF900BF00BFD8F8044000BF00BF93
:105540004BA0FEF7D1F900BF00BF00BF00BFE0686D
:10555000000E0090E068C0F30743A089C0F3072263
:10556000217B4AA0FEF7C0F900BF00BF00BF00BF0B
:105570004AA0FEF7B9F900BF00BF00BF00BF206915
:10558000000E00902069C0F30743208AC0F3072271
:10559000217C3EA0FEF7A8F900BF00BF00BF00BFFE
:1055A00027A0FEF7A1F900BF00BF756885F800903D
:1055B00085F801A00020A880E880D8F8041072685F
:1055C00002F108001C22FAF755FEE068039003A8D8
:1055D00000F0B6FD074687B1002068807189284633
:1055E00000F069F8688001200021FF2303AACDE9BB
:1055F00001070091304600F065FB304605F0E8FAFF
:1056000000BF8DE769636D705F74696D655F657874
:105610006365656465643A206661696C65642074DD
:105620006F20616C6C6F63617465207062756620B9
:10563000666F722049434D50207061636B65742E14
:105640000A000000636865636B20746861742066FB
:105650006972737420706275662063616E20686F72
:105660006C642069636D70206D657373616765009C
:1056700069636D705F74696D655F657863656564A6
:1056800065642066726F6D20000000002568752E2D
:105690002568752E2568752E2568750020746F2085
:1056A0000000000070B505460C4622460B21284636
:1056B000FFF722FF70BD30B504460D46294620464F
:1056C00003F03AF9C04380B230BDF0B5064600277A
:1056D0000024354619E06989686803F02DF904440F
:1056E000A0B200EB1444688900EBD0714910A0EB24
:1056F000410149B10FB9012000E000200746E0B2A6
:10570000C4F3072141EA00242D68002DE3D127B11D
:10571000E0B2C4F3072141EA0024E04380B2F0BDC7
:105720002DE9F0470746884691461E46DDF820A041
:105730003568ACB24FF6FF7000EA15400444DAF861
:105740000050A8B204444FF6FF7000EA154004442C
:10575000A0B200EB1444A0B200EB144423464A4626
:105760004146384600F002F8BDE8F0872DE9F047E1
:1057700006460F4690461C464FF0000935461DE090
:1057800000BF00BF6989686803F0D6F80444A0B27E
:1057900000EB1444688900EBD0714910A0EB410183
:1057A00059B1B9F1000F01D1012000E0002081467C
:1057B000E0B2C4F3072141EA00242D68002DDFD1B7
:1057C000B9F1000F04D0E0B2C4F3072141EA00248C
:1057D000384601F062FB0444404601F05EFB04449D
:1057E000A0B200EB1444A0B200EB144400BF00BF11
:1057F000E04380B2BDE8F08718B502460092D0437E
:1058000000B10AB9012018BD91F8290000F002008A
:1058100008B90020F7E74868904201D10020F2E77C
:1058200000988B681840D1E901342340984208D190
:10583000886822EA00008C68E343984201D1012085
:10584000E1E70020DFE700002DE9F74F8CB00446C8
:1058500088464FF00009B8F82010A1F11400C117D4
:1058600000EB5171C1F3CF0A1420059060680990D4
:10587000099E307800F00F001421B1EB800F04D0A6
:105880006FF005000FB0BDE8F08F00BF60891428ED
:1058900007DA00BF6DA0FEF727F800BF6FF0050024
:1058A000F0E700BFF08801F0F8FA04900498C0F324
:1058B0000C000790049800F40050039020891438DD
:1058C0001FFA80FBB8E04FF6FF7000EACA005845A7
:1058D00001DD584603E04FF6FF7000EACA00089069
:1058E0004FF4207214210E2004F014FE054605B971
:1058F000A8E000BF6889142804DA00BF5AA0FDF7A9
:10590000F3FF00BF00BF142268680999FAF7B2FCE0
:105910006E6808980A9050E061890598081A80B26C
:10592000029000BF61890598814204DA00BF56A049
:10593000FDF7DAFF00BF00BF02990A98884201DA3A
:105940000A9800E002988146B9F1000F03D10020C7
:105950000590246831E000F051FC07461FB9284645
:1059600005F036F96EE06168059808443B4641222F
:105970004946CDE90009002004F012FF0B900B9876
:1059800030B9384600F040FC284605F021F959E0CE
:10599000204605F07BFA7C613F48386128460B9928
:1059A00004F02CFF0A98A0EB090080B20A900A9834
:1059B00010B100200590246800BF0A980028ABD1E0
:1059C0000598484480B20590B8F82000143858452E
:1059D00001DB012000E0002006900798C0F30C00D6
:1059E0000490069808B1039818B1049840F4005048
:1059F0000490049801F051FAF0800899143188B2AB
:105A000001F04BFA70800020708114213046FFF7BE
:105A100052FE7081D8F81430294640460E9A9847B5
:105A2000284605F0D5F80898ABEB00001FFA80FB7C
:105A30000798504480B20790BBF1000F7FF443AF4A
:105A400000201FE74FF0FF301CE700006970345F53
:105A50006672616728293A207062756620746F6FDC
:105A60002073686F7274000074686973206E6565D6
:105A700064732061207062756620696E206F6E65A8
:105A80002070696563652100702D3E6C656E203E57
:105A90003D20706F66660000756700082DE9F047CD
:105AA00006460F46756828780421B1EB201F07D001
:105AB00000BF00BF304605F08BF80020BDE8F0873E
:105AC000287800074FEA9068688801F0E6F9814677
:105AD0003189494503DD4946304605F05FF9708953
